{
  "_format": "hh-sol-artifact-1",
  "contractName": "AdminFacet",
  "sourceName": "cache/solpp-generated-contracts/zksync/facets/Admin.sol",
  "abi": [
    {
      "anonymous": false,
      "inputs": [
        {
          "components": [
            {
              "internalType": "address",
              "name": "facet",
              "type": "address"
            },
            {
              "internalType": "enum Diamond.Action",
              "name": "action",
              "type": "uint8"
            },
            {
              "internalType": "bool",
              "name": "isFreezable",
              "type": "bool"
            },
            {
              "internalType": "bytes4[]",
              "name": "selectors",
              "type": "bytes4[]"
            }
          ],
          "indexed": false,
          "internalType": "struct Diamond.FacetCut[]",
          "name": "facetCuts",
          "type": "tuple[]"
        },
        {
          "indexed": false,
          "internalType": "address",
          "name": "initAddress",
          "type": "address"
        },
        {
          "indexed": false,
          "internalType": "bytes",
          "name": "initCalldata",
          "type": "bytes"
        }
      ],
      "name": "DiamondCut",
      "type": "event"
    },
    {
      "anonymous": false,
      "inputs": [
        {
          "components": [
            {
              "components": [
                {
                  "internalType": "address",
                  "name": "facet",
                  "type": "address"
                },
                {
                  "internalType": "enum Diamond.Action",
                  "name": "action",
                  "type": "uint8"
                },
                {
                  "internalType": "bool",
                  "name": "isFreezable",
                  "type": "bool"
                },
                {
                  "internalType": "bytes4[]",
                  "name": "selectors",
                  "type": "bytes4[]"
                }
              ],
              "internalType": "struct Diamond.FacetCut[]",
              "name": "facetCuts",
              "type": "tuple[]"
            },
            {
              "internalType": "address",
              "name": "initAddress",
              "type": "address"
            },
            {
              "internalType": "bytes",
              "name": "initCalldata",
              "type": "bytes"
            }
          ],
          "indexed": false,
          "internalType": "struct Diamond.DiamondCutData",
          "name": "diamondCut",
          "type": "tuple"
        }
      ],
      "name": "ExecuteUpgrade",
      "type": "event"
    },
    {
      "anonymous": false,
      "inputs": [],
      "name": "Freeze",
      "type": "event"
    },
    {
      "anonymous": false,
      "inputs": [
        {
          "indexed": false,
          "internalType": "bool",
          "name": "isPorterAvailable",
          "type": "bool"
        }
      ],
      "name": "IsPorterAvailableStatusUpdate",
      "type": "event"
    },
    {
      "anonymous": false,
      "inputs": [
        {
          "indexed": true,
          "internalType": "address",
          "name": "oldAdmin",
          "type": "address"
        },
        {
          "indexed": true,
          "internalType": "address",
          "name": "newAdmin",
          "type": "address"
        }
      ],
      "name": "NewAdmin",
      "type": "event"
    },
    {
      "anonymous": false,
      "inputs": [
        {
          "components": [
            {
              "internalType": "enum PubdataPricingMode",
              "name": "pubdataPricingMode",
              "type": "uint8"
            },
            {
              "internalType": "uint32",
              "name": "batchOverheadL1Gas",
              "type": "uint32"
            },
            {
              "internalType": "uint32",
              "name": "maxPubdataPerBatch",
              "type": "uint32"
            },
            {
              "internalType": "uint32",
              "name": "maxL2GasPerBatch",
              "type": "uint32"
            },
            {
              "internalType": "uint32",
              "name": "priorityTxMaxPubdata",
              "type": "uint32"
            },
            {
              "internalType": "uint64",
              "name": "minimalL2GasPrice",
              "type": "uint64"
            }
          ],
          "indexed": false,
          "internalType": "struct FeeParams",
          "name": "oldFeeParams",
          "type": "tuple"
        },
        {
          "components": [
            {
              "internalType": "enum PubdataPricingMode",
              "name": "pubdataPricingMode",
              "type": "uint8"
            },
            {
              "internalType": "uint32",
              "name": "batchOverheadL1Gas",
              "type": "uint32"
            },
            {
              "internalType": "uint32",
              "name": "maxPubdataPerBatch",
              "type": "uint32"
            },
            {
              "internalType": "uint32",
              "name": "maxL2GasPerBatch",
              "type": "uint32"
            },
            {
              "internalType": "uint32",
              "name": "priorityTxMaxPubdata",
              "type": "uint32"
            },
            {
              "internalType": "uint64",
              "name": "minimalL2GasPrice",
              "type": "uint64"
            }
          ],
          "indexed": false,
          "internalType": "struct FeeParams",
          "name": "newFeeParams",
          "type": "tuple"
        }
      ],
      "name": "NewFeeParams",
      "type": "event"
    },
    {
      "anonymous": false,
      "inputs": [
        {
          "indexed": true,
          "internalType": "address",
          "name": "oldGovernor",
          "type": "address"
        },
        {
          "indexed": true,
          "internalType": "address",
          "name": "newGovernor",
          "type": "address"
        }
      ],
      "name": "NewGovernor",
      "type": "event"
    },
    {
      "anonymous": false,
      "inputs": [
        {
          "indexed": true,
          "internalType": "address",
          "name": "oldPendingAdmin",
          "type": "address"
        },
        {
          "indexed": true,
          "internalType": "address",
          "name": "newPendingAdmin",
          "type": "address"
        }
      ],
      "name": "NewPendingAdmin",
      "type": "event"
    },
    {
      "anonymous": false,
      "inputs": [
        {
          "indexed": true,
          "internalType": "address",
          "name": "oldPendingGovernor",
          "type": "address"
        },
        {
          "indexed": true,
          "internalType": "address",
          "name": "newPendingGovernor",
          "type": "address"
        }
      ],
      "name": "NewPendingGovernor",
      "type": "event"
    },
    {
      "anonymous": false,
      "inputs": [
        {
          "indexed": false,
          "internalType": "uint256",
          "name": "oldPriorityTxMaxGasLimit",
          "type": "uint256"
        },
        {
          "indexed": false,
          "internalType": "uint256",
          "name": "newPriorityTxMaxGasLimit",
          "type": "uint256"
        }
      ],
      "name": "NewPriorityTxMaxGasLimit",
      "type": "event"
    },
    {
      "anonymous": false,
      "inputs": [],
      "name": "Unfreeze",
      "type": "event"
    },
    {
      "anonymous": false,
      "inputs": [
        {
          "indexed": true,
          "internalType": "address",
          "name": "validatorAddress",
          "type": "address"
        },
        {
          "indexed": false,
          "internalType": "bool",
          "name": "isActive",
          "type": "bool"
        }
      ],
      "name": "ValidatorStatusUpdate",
      "type": "event"
    },
    {
      "inputs": [],
      "name": "acceptAdmin",
      "outputs": [],
      "stateMutability": "nonpayable",
      "type": "function"
    },
    {
      "inputs": [],
      "name": "acceptGovernor",
      "outputs": [],
      "stateMutability": "nonpayable",
      "type": "function"
    },
    {
      "inputs": [
        {
          "components": [
            {
              "internalType": "enum PubdataPricingMode",
              "name": "pubdataPricingMode",
              "type": "uint8"
            },
            {
              "internalType": "uint32",
              "name": "batchOverheadL1Gas",
              "type": "uint32"
            },
            {
              "internalType": "uint32",
              "name": "maxPubdataPerBatch",
              "type": "uint32"
            },
            {
              "internalType": "uint32",
              "name": "maxL2GasPerBatch",
              "type": "uint32"
            },
            {
              "internalType": "uint32",
              "name": "priorityTxMaxPubdata",
              "type": "uint32"
            },
            {
              "internalType": "uint64",
              "name": "minimalL2GasPrice",
              "type": "uint64"
            }
          ],
          "internalType": "struct FeeParams",
          "name": "_newFeeParams",
          "type": "tuple"
        }
      ],
      "name": "changeFeeParams",
      "outputs": [],
      "stateMutability": "nonpayable",
      "type": "function"
    },
    {
      "inputs": [
        {
          "components": [
            {
              "components": [
                {
                  "internalType": "address",
                  "name": "facet",
                  "type": "address"
                },
                {
                  "internalType": "enum Diamond.Action",
                  "name": "action",
                  "type": "uint8"
                },
                {
                  "internalType": "bool",
                  "name": "isFreezable",
                  "type": "bool"
                },
                {
                  "internalType": "bytes4[]",
                  "name": "selectors",
                  "type": "bytes4[]"
                }
              ],
              "internalType": "struct Diamond.FacetCut[]",
              "name": "facetCuts",
              "type": "tuple[]"
            },
            {
              "internalType": "address",
              "name": "initAddress",
              "type": "address"
            },
            {
              "internalType": "bytes",
              "name": "initCalldata",
              "type": "bytes"
            }
          ],
          "internalType": "struct Diamond.DiamondCutData",
          "name": "_diamondCut",
          "type": "tuple"
        }
      ],
      "name": "executeUpgrade",
      "outputs": [],
      "stateMutability": "nonpayable",
      "type": "function"
    },
    {
      "inputs": [],
      "name": "freezeDiamond",
      "outputs": [],
      "stateMutability": "nonpayable",
      "type": "function"
    },
    {
      "inputs": [],
      "name": "getName",
      "outputs": [
        {
          "internalType": "string",
          "name": "",
          "type": "string"
        }
      ],
      "stateMutability": "view",
      "type": "function"
    },
    {
      "inputs": [
        {
          "internalType": "address",
          "name": "_newPendingAdmin",
          "type": "address"
        }
      ],
      "name": "setPendingAdmin",
      "outputs": [],
      "stateMutability": "nonpayable",
      "type": "function"
    },
    {
      "inputs": [
        {
          "internalType": "address",
          "name": "_newPendingGovernor",
          "type": "address"
        }
      ],
      "name": "setPendingGovernor",
      "outputs": [],
      "stateMutability": "nonpayable",
      "type": "function"
    },
    {
      "inputs": [
        {
          "internalType": "bool",
          "name": "_zkPorterIsAvailable",
          "type": "bool"
        }
      ],
      "name": "setPorterAvailability",
      "outputs": [],
      "stateMutability": "nonpayable",
      "type": "function"
    },
    {
      "inputs": [
        {
          "internalType": "uint256",
          "name": "_newPriorityTxMaxGasLimit",
          "type": "uint256"
        }
      ],
      "name": "setPriorityTxMaxGasLimit",
      "outputs": [],
      "stateMutability": "nonpayable",
      "type": "function"
    },
    {
      "inputs": [
        {
          "internalType": "address",
          "name": "_validator",
          "type": "address"
        },
        {
          "internalType": "bool",
          "name": "_active",
          "type": "bool"
        }
      ],
      "name": "setValidator",
      "outputs": [],
      "stateMutability": "nonpayable",
      "type": "function"
    },
    {
      "inputs": [],
      "name": "unfreezeDiamond",
      "outputs": [],
      "stateMutability": "nonpayable",
      "type": "function"
    }
  ],
  "bytecode": "0x608060405234801561001057600080fd5b5061321b806100206000396000f3fe608060405234801561001057600080fd5b50600436106100d45760003560e01c80634dd18bf511610081578063be6f11cf1161005b578063be6f11cf146101a4578063e58bb639146101b7578063f235757f146101bf57600080fd5b80634dd18bf51461016b57806364bf8d661461017e578063a9f6d9411461019157600080fd5b80631cc5d103116100b25780631cc5d1031461013d57806327ae4c16146101505780634623c91d1461015857600080fd5b80630e18b681146100d957806317338945146100e357806317d7de7c146100eb575b600080fd5b6100e16101d2565b005b6100e1610334565b6101276040518060400160405280600a81526020017f41646d696e46616365740000000000000000000000000000000000000000000081525081565b6040516101349190612480565b60405180910390f35b6100e161014b3660046124af565b6104da565b6100e16105c1565b6100e16101663660046124ee565b610749565b6100e1610179366004612521565b610876565b6100e161018c36600461253c565b61096e565b6100e161019f366004612554565b610b83565b6100e16101b236600461258f565b610c44565b6100e1610d71565b6100e16101cd366004612521565b610ece565b60255473ffffffffffffffffffffffffffffffffffffffff16338114610259576040517f08c379a000000000000000000000000000000000000000000000000000000000815260206004820152600260248201527f6e3400000000000000000000000000000000000000000000000000000000000060448201526064015b60405180910390fd5b6024805473ffffffffffffffffffffffffffffffffffffffff8381167fffffffffffffffffffffffff00000000000000000000000000000000000000008084168217909455602580549094169093556040519116916000917fca4f2f25d0898edd99413412fb94012f9e54ec8142f9b093e7720646a95b16a9908390a38173ffffffffffffffffffffffffffffffffffffffff168173ffffffffffffffffffffffffffffffffffffffff167ff9ffabca9c8276e99321725bcb43fb076a6c66a54b7f21c4e8146d8519b417dc60405160405180910390a35050565b60075473ffffffffffffffffffffffffffffffffffffffff16331480610371575060245473ffffffffffffffffffffffffffffffffffffffff1633145b6103d7576040517f08c379a000000000000000000000000000000000000000000000000000000000815260206004820152600260248201527f316b0000000000000000000000000000000000000000000000000000000000006044820152606401610250565b7fc8fcad8db84d3cc18b4c41d551ea0ee66dd599cde068d998e57d5e09332c131e547fc8fcad8db84d3cc18b4c41d551ea0ee66dd599cde068d998e57d5e09332c131b9060ff16610484576040517f08c379a000000000000000000000000000000000000000000000000000000000815260206004820152600260248201527f61370000000000000000000000000000000000000000000000000000000000006044820152606401610250565b6003810180547fffffffffffffffffffffffffffffffffffffffffffffffffffffffffffffff001690556040517f2f05ba71d0df11bf5fa562a6569d70c4f80da84284badbe015ce1456063d0ded90600090a150565b60075473ffffffffffffffffffffffffffffffffffffffff16331461055b576040517f08c379a000000000000000000000000000000000000000000000000000000000815260206004820152600260248201527f31670000000000000000000000000000000000000000000000000000000000006044820152606401610250565b601980547fffffffffffffffffffffffffffffffffffffffffffffffffffffffffffffff00168215159081179091556040519081527f036b81a8a07344698cb5aa4142c5669a9317c9ce905264a08f0b9f9331883936906020015b60405180910390a150565b60075473ffffffffffffffffffffffffffffffffffffffff163314610642576040517f08c379a000000000000000000000000000000000000000000000000000000000815260206004820152600260248201527f31670000000000000000000000000000000000000000000000000000000000006044820152606401610250565b7fc8fcad8db84d3cc18b4c41d551ea0ee66dd599cde068d998e57d5e09332c131e547fc8fcad8db84d3cc18b4c41d551ea0ee66dd599cde068d998e57d5e09332c131b9060ff16156106f0576040517f08c379a000000000000000000000000000000000000000000000000000000000815260206004820152600260248201527f61390000000000000000000000000000000000000000000000000000000000006044820152606401610250565b6003810180547fffffffffffffffffffffffffffffffffffffffffffffffffffffffffffffff001660011790556040517f615acbaede366d76a8b8cb2a9ada6a71495f0786513d71aa97aaf0c3910b78de90600090a150565b60075473ffffffffffffffffffffffffffffffffffffffff16331480610786575060245473ffffffffffffffffffffffffffffffffffffffff1633145b6107ec576040517f08c379a000000000000000000000000000000000000000000000000000000000815260206004820152600260248201527f316b0000000000000000000000000000000000000000000000000000000000006044820152606401610250565b73ffffffffffffffffffffffffffffffffffffffff821660008181526009602090815260409182902080547fffffffffffffffffffffffffffffffffffffffffffffffffffffffffffffff001685151590811790915591519182527f065b77b53864e46fda3d8986acb51696223d6dde7ced42441eb150bae6d48136910160405180910390a25050565b60075473ffffffffffffffffffffffffffffffffffffffff1633146108f7576040517f08c379a000000000000000000000000000000000000000000000000000000000815260206004820152600260248201527f31670000000000000000000000000000000000000000000000000000000000006044820152606401610250565b6025805473ffffffffffffffffffffffffffffffffffffffff8381167fffffffffffffffffffffffff0000000000000000000000000000000000000000831681179093556040519116919082907fca4f2f25d0898edd99413412fb94012f9e54ec8142f9b093e7720646a95b16a990600090a35050565b60075473ffffffffffffffffffffffffffffffffffffffff1633146109ef576040517f08c379a000000000000000000000000000000000000000000000000000000000815260206004820152600260248201527f31670000000000000000000000000000000000000000000000000000000000006044820152606401610250565b6109ff60a08201608083016125bd565b63ffffffff16610a1560608301604084016125bd565b63ffffffff161015610a83576040517f08c379a000000000000000000000000000000000000000000000000000000000815260206004820152600260248201527f6e360000000000000000000000000000000000000000000000000000000000006044820152606401610250565b6040805160c08101909152602680546000929190829060ff166001811115610aad57610aad6125da565b6001811115610abe57610abe6125da565b8152905463ffffffff6101008204811660208401526501000000000082048116604084015269010000000000000000008204811660608401526d0100000000000000000000000000820416608083015267ffffffffffffffff710100000000000000000000000000000000009091041660a0909101529050816026610b43828261264c565b9050507fc8b245ac8b138b17b6b1dbbbb8860adc66b373afa000d99f3cdc775d8ae0bbed8183604051610b77929190612836565b60405180910390a15050565b60075473ffffffffffffffffffffffffffffffffffffffff163314610c04576040517f08c379a000000000000000000000000000000000000000000000000000000000815260206004820152600260248201527f31670000000000000000000000000000000000000000000000000000000000006044820152606401610250565b610c15610c1082612aee565b610fc6565b7f1dabfc3f4f6a4e74e19be10cc9d1d8e23db03e415d5d3547a1a7d5eb766513ba816040516105b69190612df2565b60075473ffffffffffffffffffffffffffffffffffffffff163314610cc5576040517f08c379a000000000000000000000000000000000000000000000000000000000815260206004820152600260248201527f31670000000000000000000000000000000000000000000000000000000000006044820152606401610250565b6304c4b400811115610d33576040517f08c379a000000000000000000000000000000000000000000000000000000000815260206004820152600260248201527f6e350000000000000000000000000000000000000000000000000000000000006044820152606401610250565b601a80549082905560408051828152602081018490527f83dd728f7e76a849126c55ffabdc6e299eb8c85dccf12498701376d9f5c954d19101610b77565b60085473ffffffffffffffffffffffffffffffffffffffff16338114610df3576040517f08c379a000000000000000000000000000000000000000000000000000000000815260206004820152600260248201527f6e340000000000000000000000000000000000000000000000000000000000006044820152606401610250565b6007805473ffffffffffffffffffffffffffffffffffffffff8381167fffffffffffffffffffffffff00000000000000000000000000000000000000008084168217909455600880549094169093556040519116916000917f7d767be5a57784412a13945bd5114db84487d2b007bfcdb2f449fc9ea35437f7908390a38173ffffffffffffffffffffffffffffffffffffffff168173ffffffffffffffffffffffffffffffffffffffff167f1ba669d4a78521f2ad26e8e0fcbcdd626a63f34d68f326bc232a3abe2a5d042a60405160405180910390a35050565b60075473ffffffffffffffffffffffffffffffffffffffff163314610f4f576040517f08c379a000000000000000000000000000000000000000000000000000000000815260206004820152600260248201527f31670000000000000000000000000000000000000000000000000000000000006044820152606401610250565b6008805473ffffffffffffffffffffffffffffffffffffffff8381167fffffffffffffffffffffffff0000000000000000000000000000000000000000831681179093556040519116919082907f7d767be5a57784412a13945bd5114db84487d2b007bfcdb2f449fc9ea35437f790600090a35050565b805160208201516040830151825160005b818110156111b9576000858281518110610ff357610ff3612fd3565b6020026020010151602001519050600086838151811061101557611015612fd3565b6020026020010151600001519050600087848151811061103757611037612fd3565b6020026020010151604001519050600088858151811061105957611059612fd3565b602002602001015160600151905060008151116110d2576040517f08c379a000000000000000000000000000000000000000000000000000000000815260206004820152600160248201527f42000000000000000000000000000000000000000000000000000000000000006044820152606401610250565b60008460028111156110e6576110e66125da565b036110fb576110f6838284611206565b6111a4565b600184600281111561110f5761110f6125da565b0361111f576110f6838284611401565b6002846002811115611133576111336125da565b03611142576110f683826115ff565b6040517f08c379a000000000000000000000000000000000000000000000000000000000815260206004820152600160248201527f43000000000000000000000000000000000000000000000000000000000000006044820152606401610250565b505050506111b28160010190565b9050610fd7565b506111c483836117f0565b7f87b829356b3403d36217eff1f66ee48eacd0a69015153aba4f0de29fe5340c308484846040516111f793929190613002565b60405180910390a15050505050565b7fc8fcad8db84d3cc18b4c41d551ea0ee66dd599cde068d998e57d5e09332c131b73ffffffffffffffffffffffffffffffffffffffff84163b6112a5576040517f08c379a000000000000000000000000000000000000000000000000000000000815260206004820152600160248201527f47000000000000000000000000000000000000000000000000000000000000006044820152606401610250565b6112ae84611a6d565b825160005b818110156113f95760008582815181106112cf576112cf612fd3565b6020908102919091018101517fffffffff00000000000000000000000000000000000000000000000000000000811660009081528683526040908190208151606081018352905473ffffffffffffffffffffffffffffffffffffffff811680835274010000000000000000000000000000000000000000820461ffff1695830195909552760100000000000000000000000000000000000000000000900460ff1615159181019190915290925090156113e4576040517f08c379a000000000000000000000000000000000000000000000000000000000815260206004820152600160248201527f4a000000000000000000000000000000000000000000000000000000000000006044820152606401610250565b6113ef888388611b89565b50506001016112b3565b505050505050565b7fc8fcad8db84d3cc18b4c41d551ea0ee66dd599cde068d998e57d5e09332c131b73ffffffffffffffffffffffffffffffffffffffff84163b6114a0576040517f08c379a000000000000000000000000000000000000000000000000000000000815260206004820152600160248201527f4b000000000000000000000000000000000000000000000000000000000000006044820152606401610250565b825160005b818110156113f95760008582815181106114c1576114c1612fd3565b6020908102919091018101517fffffffff00000000000000000000000000000000000000000000000000000000811660009081528683526040908190208151606081018352905473ffffffffffffffffffffffffffffffffffffffff811680835274010000000000000000000000000000000000000000820461ffff1695830195909552760100000000000000000000000000000000000000000000900460ff16151591810191909152909250906115d5576040517f08c379a000000000000000000000000000000000000000000000000000000000815260206004820152600160248201527f4c000000000000000000000000000000000000000000000000000000000000006044820152606401610250565b80516115e19083611e62565b6115ea88611a6d565b6115f5888388611b89565b50506001016114a5565b7fc8fcad8db84d3cc18b4c41d551ea0ee66dd599cde068d998e57d5e09332c131b73ffffffffffffffffffffffffffffffffffffffff83161561169e576040517f08c379a000000000000000000000000000000000000000000000000000000000815260206004820152600260248201527f61310000000000000000000000000000000000000000000000000000000000006044820152606401610250565b815160005b818110156117e95760008482815181106116bf576116bf612fd3565b6020908102919091018101517fffffffff00000000000000000000000000000000000000000000000000000000811660009081528683526040908190208151606081018352905473ffffffffffffffffffffffffffffffffffffffff811680835274010000000000000000000000000000000000000000820461ffff1695830195909552760100000000000000000000000000000000000000000000900460ff16151591810191909152909250906117d3576040517f08c379a000000000000000000000000000000000000000000000000000000000815260206004820152600260248201527f61320000000000000000000000000000000000000000000000000000000000006044820152606401610250565b80516117df9083611e62565b50506001016116a3565b5050505050565b73ffffffffffffffffffffffffffffffffffffffff821661187857805115611874576040517f08c379a000000000000000000000000000000000000000000000000000000000815260206004820152600160248201527f48000000000000000000000000000000000000000000000000000000000000006044820152606401610250565b5050565b6000808373ffffffffffffffffffffffffffffffffffffffff16836040516118a09190613147565b600060405180830381855af49150503d80600081146118db576040519150601f19603f3d011682016040523d82523d6000602084013e6118e0565b606091505b50915091508161195d576004815111611955576040517f08c379a000000000000000000000000000000000000000000000000000000000815260206004820152600160248201527f49000000000000000000000000000000000000000000000000000000000000006044820152606401610250565b805160208201fd5b80516020146119c8576040517f08c379a000000000000000000000000000000000000000000000000000000000815260206004820152600260248201527f6c700000000000000000000000000000000000000000000000000000000000006044820152606401610250565b7f33774e659306e47509050e97cb651e731180a42d458212294d30751925c551a260001b81806020019051810190611a009190613163565b14611a67576040517f08c379a000000000000000000000000000000000000000000000000000000000815260206004820152600360248201527f6c703100000000000000000000000000000000000000000000000000000000006044820152606401610250565b50505050565b73ffffffffffffffffffffffffffffffffffffffff811660009081527fc8fcad8db84d3cc18b4c41d551ea0ee66dd599cde068d998e57d5e09332c131c60205260408120547fc8fcad8db84d3cc18b4c41d551ea0ee66dd599cde068d998e57d5e09332c131b91819003611b84576002820154611ae99061215f565b73ffffffffffffffffffffffffffffffffffffffff841660008181526001858101602090815260408320820180547fffffffffffffffffffffffffffffffffffffffffffffffffffffffffffff00001661ffff96909616959095179094556002860180549182018155825292902090910180547fffffffffffffffffffffffff00000000000000000000000000000000000000001690911790555b505050565b73ffffffffffffffffffffffffffffffffffffffff831660009081527fc8fcad8db84d3cc18b4c41d551ea0ee66dd599cde068d998e57d5e09332c131c60205260408120547fc8fcad8db84d3cc18b4c41d551ea0ee66dd599cde068d998e57d5e09332c131b9190611bfa9061215f565b905061ffff811615611d1c5773ffffffffffffffffffffffffffffffffffffffff85166000908152600183016020526040812080548290611c3d57611c3d612fd3565b6000918252602080832060088304015460079092166004026101000a90910460e01b7fffffffff000000000000000000000000000000000000000000000000000000008116835290859052604090912054909150760100000000000000000000000000000000000000000000900460ff16151584151514611d1a576040517f08c379a000000000000000000000000000000000000000000000000000000000815260206004820152600260248201527f4a310000000000000000000000000000000000000000000000000000000000006044820152606401610250565b505b6040805160608101825273ffffffffffffffffffffffffffffffffffffffff96871680825261ffff93841660208084019182529615158385019081527fffffffff000000000000000000000000000000000000000000000000000000008916600090815287895285812094518554935192519b167fffffffffffffffffffff0000000000000000000000000000000000000000000090931692909217740100000000000000000000000000000000000000009190961602949094177fffffffffffffffffff00ffffffffffffffffffffffffffffffffffffffffffff16760100000000000000000000000000000000000000000000981515989098029790971790559481526001918201835293842080549182018155845292206008830401805463ffffffff60079094166004026101000a938402191660e09290921c92909202179055565b7fffffffff00000000000000000000000000000000000000000000000000000000811660009081527fc8fcad8db84d3cc18b4c41d551ea0ee66dd599cde068d998e57d5e09332c131b602081815260408084205473ffffffffffffffffffffffffffffffffffffffff871685527fc8fcad8db84d3cc18b4c41d551ea0ee66dd599cde068d998e57d5e09332c131c90925283205491927401000000000000000000000000000000000000000090910461ffff1691611f229060019061317c565b90508082146120785773ffffffffffffffffffffffffffffffffffffffff851660009081526001840160205260408120805483908110611f6457611f64612fd3565b6000918252602080832060088304015473ffffffffffffffffffffffffffffffffffffffff8a168452600188019091526040909220805460079092166004026101000a90920460e01b925082919085908110611fc257611fc2612fd3565b90600052602060002090600891828204019190066004026101000a81548163ffffffff021916908360e01c0217905550611ffb8361215f565b7fffffffff000000000000000000000000000000000000000000000000000000009091166000908152602085905260409020805461ffff9290921674010000000000000000000000000000000000000000027fffffffffffffffffffff0000ffffffffffffffffffffffffffffffffffffffff9092169190911790555b73ffffffffffffffffffffffffffffffffffffffff8516600090815260018401602052604090208054806120ae576120ae6131b6565b6000828152602080822060087fffffffffffffffffffffffffffffffffffffffffffffffffffffffffffffffff90940193840401805463ffffffff600460078716026101000a0219169055919092557fffffffff00000000000000000000000000000000000000000000000000000000861682528490526040812080547fffffffffffffffffff00000000000000000000000000000000000000000000001690558190036117e9576117e9856121f7565b600061ffff8211156121f3576040517f08c379a000000000000000000000000000000000000000000000000000000000815260206004820152602660248201527f53616665436173743a2076616c756520646f65736e27742066697420696e203160448201527f36206269747300000000000000000000000000000000000000000000000000006064820152608401610250565b5090565b73ffffffffffffffffffffffffffffffffffffffff811660009081527fc8fcad8db84d3cc18b4c41d551ea0ee66dd599cde068d998e57d5e09332c131c602052604081206001908101547fc8fcad8db84d3cc18b4c41d551ea0ee66dd599cde068d998e57d5e09332c131d547fc8fcad8db84d3cc18b4c41d551ea0ee66dd599cde068d998e57d5e09332c131b9361ffff909216926122959161317c565b90508082146123a15760008360020182815481106122b5576122b5612fd3565b60009182526020909120015460028501805473ffffffffffffffffffffffffffffffffffffffff90921692508291859081106122f3576122f3612fd3565b9060005260206000200160006101000a81548173ffffffffffffffffffffffffffffffffffffffff021916908373ffffffffffffffffffffffffffffffffffffffff1602179055506123448361215f565b73ffffffffffffffffffffffffffffffffffffffff919091166000908152600185810160205260409091200180547fffffffffffffffffffffffffffffffffffffffffffffffffffffffffffff00001661ffff9092169190911790555b826002018054806123b4576123b46131b6565b60008281526020902081017fffffffffffffffffffffffffffffffffffffffffffffffffffffffffffffffff90810180547fffffffffffffffffffffffff000000000000000000000000000000000000000016905501905550505050565b60005b8381101561242d578181015183820152602001612415565b50506000910152565b6000815180845261244e816020860160208601612412565b601f017fffffffffffffffffffffffffffffffffffffffffffffffffffffffffffffffe0169290920160200192915050565b6020815260006124936020830184612436565b9392505050565b803580151581146124aa57600080fd5b919050565b6000602082840312156124c157600080fd5b6124938261249a565b803573ffffffffffffffffffffffffffffffffffffffff811681146124aa57600080fd5b6000806040838503121561250157600080fd5b61250a836124ca565b91506125186020840161249a565b90509250929050565b60006020828403121561253357600080fd5b612493826124ca565b600060c0828403121561254e57600080fd5b50919050565b60006020828403121561256657600080fd5b813567ffffffffffffffff81111561257d57600080fd5b82016060818503121561249357600080fd5b6000602082840312156125a157600080fd5b5035919050565b63ffffffff811681146125ba57600080fd5b50565b6000602082840312156125cf57600080fd5b8135612493816125a8565b7f4e487b7100000000000000000000000000000000000000000000000000000000600052602160045260246000fd5b600281106125ba57600080fd5b60008135612623816125a8565b92915050565b67ffffffffffffffff811681146125ba57600080fd5b6000813561262381612629565b813561265781612609565b60028110612667576126676125da565b815460ff82169150817fffffffffffffffffffffffffffffffffffffffffffffffffffffffffffffff00821617835560208401356126a4816125a8565b64ffffffff008160081b16837fffffffffffffffffffffffffffffffffffffffffffffffffffffff000000000084161717845550505060408201356126e8816125a8565b81547fffffffffffffffffffffffffffffffffffffffffffffff00000000ffffffffff16602882901b68ffffffff0000000000161782555061276d61272f60608401612616565b82547fffffffffffffffffffffffffffffffffffffff00000000ffffffffffffffffff1660489190911b6cffffffff00000000000000000016178255565b6127be61277c60808401612616565b82547fffffffffffffffffffffffffffffff00000000ffffffffffffffffffffffffff1660689190911b70ffffffff0000000000000000000000000016178255565b6118746127cd60a0840161263f565b82547fffffffffffffff0000000000000000ffffffffffffffffffffffffffffffffff1660889190911b78ffffffffffffffff000000000000000000000000000000000016178255565b60028110612827576128276125da565b9052565b80356124aa81612629565b60006101808201905061284a828551612817565b602084015163ffffffff808216602085015280604087015116604085015280606087015116606085015280608087015116608085015267ffffffffffffffff60a08701511660a0850152843591506128a182612609565b6128ae60c0850183612817565b602085013591506128be826125a8565b90811660e08401526040840135906128d5826125a8565b9081166101008401526060840135906128ed826125a8565b166101208301526080830135612902816125a8565b63ffffffff1661014083015261291a60a0840161282b565b67ffffffffffffffff8116610160840152509392505050565b7f4e487b7100000000000000000000000000000000000000000000000000000000600052604160045260246000fd5b6040516060810167ffffffffffffffff8111828210171561298557612985612933565b60405290565b6040516080810167ffffffffffffffff8111828210171561298557612985612933565b604051601f82017fffffffffffffffffffffffffffffffffffffffffffffffffffffffffffffffe016810167ffffffffffffffff811182821017156129f5576129f5612933565b604052919050565b600067ffffffffffffffff821115612a1757612a17612933565b5060051b60200190565b8035600381106124aa57600080fd5b80357fffffffff00000000000000000000000000000000000000000000000000000000811681146124aa57600080fd5b600082601f830112612a7157600080fd5b813567ffffffffffffffff811115612a8b57612a8b612933565b612abc60207fffffffffffffffffffffffffffffffffffffffffffffffffffffffffffffffe0601f840116016129ae565b818152846020838601011115612ad157600080fd5b816020850160208301376000918101602001919091529392505050565b60006060808336031215612b0157600080fd5b612b09612962565b833567ffffffffffffffff80821115612b2157600080fd5b9085019036601f830112612b3457600080fd5b81356020612b49612b44836129fd565b6129ae565b82815260059290921b84018101918181019036841115612b6857600080fd5b8286015b84811015612c8557803586811115612b845760008081fd5b87016080368290037fffffffffffffffffffffffffffffffffffffffffffffffffffffffffffffffe001811315612bbb5760008081fd5b612bc361298b565b612bce8784016124ca565b81526040612bdd818501612a21565b88830152612bec8d850161249a565b82820152918301359189831115612c035760008081fd5b9282019236603f850112612c1957600092508283fd5b878401359250612c2b612b44846129fd565b83815260059390931b84018101928881019036851115612c4b5760008081fd5b948201945b84861015612c7057612c6186612a30565b82529489019490890190612c50565b838f0152505085525050918301918301612b6c565b50865250612c948882016124ca565b90850152506040860135935080841115612cad57600080fd5b5050612cbb36838601612a60565b60408201529392505050565b60008083357fffffffffffffffffffffffffffffffffffffffffffffffffffffffffffffffe1843603018112612cfc57600080fd5b830160208101925035905067ffffffffffffffff811115612d1c57600080fd5b8060051b3603821315612d2e57600080fd5b9250929050565b60038110612827576128276125da565b60008083357fffffffffffffffffffffffffffffffffffffffffffffffffffffffffffffffe1843603018112612d7a57600080fd5b830160208101925035905067ffffffffffffffff811115612d9a57600080fd5b803603821315612d2e57600080fd5b8183528181602085013750600060208284010152600060207fffffffffffffffffffffffffffffffffffffffffffffffffffffffffffffffe0601f840116840101905092915050565b600060208083526080808401612e088687612cc7565b60608786018190529281905260a092838801600583901b890185018460005b85811015612f54577fffffffffffffffffffffffffffffffffffffffffffffffffffffffffffffff608c840301845281357fffffffffffffffffffffffffffffffffffffffffffffffffffffffffffffff81883603018112612e8857600080fd5b8701838a0173ffffffffffffffffffffffffffffffffffffffff612eab836124ca565b168552612eb98c8301612a21565b612ec58d870182612d35565b506040612ed381840161249a565b151590860152612ee582880183612cc7565b8689018d90529182905290915060008a86015b83821015612f3f577fffffffff00000000000000000000000000000000000000000000000000000000612f2a84612a30565b168152918d0191600191909101908d01612ef8565b968d019695505050918a019150600101612e27565b5050612f61888c016124ca565b73ffffffffffffffffffffffffffffffffffffffff811660408c01529750612f8c60408c018c612d45565b985096507fffffffffffffffffffffffffffffffffffffffffffffffffffffffffffffffe08a820301838b0152612fc4818989612da9565b9b9a5050505050505050505050565b7f4e487b7100000000000000000000000000000000000000000000000000000000600052603260045260246000fd5b60006060808301818452808751808352608092508286019150828160051b8701016020808b016000805b85811015613109577fffffffffffffffffffffffffffffffffffffffffffffffffffffffffffffff808b8603018752825188860173ffffffffffffffffffffffffffffffffffffffff82511687528582015161308a87890182612d35565b50604082810151151590880152908a01518a87018a9052805191829052850190839060a08801905b808310156130f45783517fffffffff000000000000000000000000000000000000000000000000000000001682529287019260019290920191908701906130b2565b5098860198965050509183019160010161302c565b50505073ffffffffffffffffffffffffffffffffffffffff8a169088015286810360408801526131398189612436565b9a9950505050505050505050565b60008251613159818460208701612412565b9190910192915050565b60006020828403121561317557600080fd5b5051919050565b81810381811115612623577f4e487b7100000000000000000000000000000000000000000000000000000000600052601160045260246000fd5b7f4e487b7100000000000000000000000000000000000000000000000000000000600052603160045260246000fdfea2646970667358221220a42c19f73cff2c00de4a38b73a9eb0ac07e86a1dce602cb5cc482c1f3a27455564736f6c63430008140033",
  "linkReferences": {},
  "deployedLinkReferences": {}
}