{
  "_format": "hh-sol-artifact-1",
  "contractName": "DiamondInit",
  "sourceName": "cache/solpp-generated-contracts/zksync/DiamondInit.sol",
  "abi": [
    {
      "inputs": [],
      "stateMutability": "nonpayable",
      "type": "constructor"
    },
    {
      "inputs": [
        {
          "components": [
            {
              "internalType": "contract IVerifier",
              "name": "verifier",
              "type": "address"
            },
            {
              "internalType": "address",
              "name": "governor",
              "type": "address"
            },
            {
              "internalType": "address",
              "name": "admin",
              "type": "address"
            },
            {
              "internalType": "bytes32",
              "name": "genesisBatchHash",
              "type": "bytes32"
            },
            {
              "internalType": "uint64",
              "name": "genesisIndexRepeatedStorageChanges",
              "type": "uint64"
            },
            {
              "internalType": "bytes32",
              "name": "genesisBatchCommitment",
              "type": "bytes32"
            },
            {
              "components": [
                {
                  "internalType": "bytes32",
                  "name": "recursionNodeLevelVkHash",
                  "type": "bytes32"
                },
                {
                  "internalType": "bytes32",
                  "name": "recursionLeafLevelVkHash",
                  "type": "bytes32"
                },
                {
                  "internalType": "bytes32",
                  "name": "recursionCircuitsSetVksHash",
                  "type": "bytes32"
                }
              ],
              "internalType": "struct VerifierParams",
              "name": "verifierParams",
              "type": "tuple"
            },
            {
              "internalType": "bool",
              "name": "zkPorterIsAvailable",
              "type": "bool"
            },
            {
              "internalType": "bytes32",
              "name": "l2BootloaderBytecodeHash",
              "type": "bytes32"
            },
            {
              "internalType": "bytes32",
              "name": "l2DefaultAccountBytecodeHash",
              "type": "bytes32"
            },
            {
              "internalType": "uint256",
              "name": "priorityTxMaxGasLimit",
              "type": "uint256"
            },
            {
              "internalType": "uint256",
              "name": "initialProtocolVersion",
              "type": "uint256"
            },
            {
              "components": [
                {
                  "internalType": "enum PubdataPricingMode",
                  "name": "pubdataPricingMode",
                  "type": "uint8"
                },
                {
                  "internalType": "uint32",
                  "name": "batchOverheadL1Gas",
                  "type": "uint32"
                },
                {
                  "internalType": "uint32",
                  "name": "maxPubdataPerBatch",
                  "type": "uint32"
                },
                {
                  "internalType": "uint32",
                  "name": "maxL2GasPerBatch",
                  "type": "uint32"
                },
                {
                  "internalType": "uint32",
                  "name": "priorityTxMaxPubdata",
                  "type": "uint32"
                },
                {
                  "internalType": "uint64",
                  "name": "minimalL2GasPrice",
                  "type": "uint64"
                }
              ],
              "internalType": "struct FeeParams",
              "name": "feeParams",
              "type": "tuple"
            }
          ],
          "internalType": "struct DiamondInit.InitializeData",
          "name": "_initalizeData",
          "type": "tuple"
        }
      ],
      "name": "initialize",
      "outputs": [
        {
          "internalType": "bytes32",
          "name": "",
          "type": "bytes32"
        }
      ],
      "stateMutability": "nonpayable",
      "type": "function"
    }
  ],
  "bytecode": "0x608060405234801561001057600080fd5b5061001961001e565b610080565b7f8e94fed44239eb2314ab7a406345e6c5a8f0ccedf3b600de3d004e672c33abf480546001909155801561007d5760405162461bcd60e51b815260206004820152600260248201526118a160f11b604482015260640160405180910390fd5b50565b6108fb8061008f6000396000f3fe608060405234801561001057600080fd5b506004361061002b5760003560e01c80637da889ed14610030575b600080fd5b61004361003e366004610629565b610055565b60405190815260200160405180910390f35b600061005f610596565b600061006e6020840184610664565b73ffffffffffffffffffffffffffffffffffffffff16036100f0576040517f08c379a000000000000000000000000000000000000000000000000000000000815260206004820152600260248201527f767400000000000000000000000000000000000000000000000000000000000060448201526064015b60405180910390fd5b60006101026040840160208501610664565b73ffffffffffffffffffffffffffffffffffffffff160361017f576040517f08c379a000000000000000000000000000000000000000000000000000000000815260206004820152600260248201527f767900000000000000000000000000000000000000000000000000000000000060448201526064016100e7565b60006101916060840160408501610664565b73ffffffffffffffffffffffffffffffffffffffff160361020e576040517f08c379a000000000000000000000000000000000000000000000000000000000815260206004820152600260248201527f686300000000000000000000000000000000000000000000000000000000000060448201526064016100e7565b6304c4b4008261018001351115610281576040517f08c379a000000000000000000000000000000000000000000000000000000000815260206004820152600260248201527f767500000000000000000000000000000000000000000000000000000000000060448201526064016100e7565b61028e6020830183610664565b600a80547fffffffffffffffffffffffff00000000000000000000000000000000000000001673ffffffffffffffffffffffffffffffffffffffff929092169190911790556102e36040830160208401610664565b600780547fffffffffffffffffffffffff00000000000000000000000000000000000000001673ffffffffffffffffffffffffffffffffffffffff929092169190911790556103386060830160408401610664565b602480547fffffffffffffffffffffffff00000000000000000000000000000000000000001673ffffffffffffffffffffffffffffffffffffffff9290921691909117905560408051610100810182526000808252606085013560208301529181016103aa60a086016080870161069e565b67ffffffffffffffff168152602001600081526020017fc5d2460186f7233c927e7db2dcc703c0e500b653ca82273b7bfad8045d85a47060001b81526020016000801b8152602001600081526020018460a00135815250905080604051602001610476919060006101008201905067ffffffffffffffff8084511683526020840151602084015280604085015116604084015250606083015160608301526080830151608083015260a083015160a083015260c083015160c083015260e083015160e083015292915050565b604080517fffffffffffffffffffffffffffffffffffffffffffffffffffffffffffffffe0818403018152919052805160209182012060008052600e9091527fe710864318d4a32f37d6ce54cb3fadbef648dd12d8dbdf53973564d56b7f881c5560c083013560145560e0830135601555610100830135601655610502610140840161012085016106bb565b601980547fffffffffffffffffffffffffffffffffffffffffffffffffffffffffffffff0016911515919091179055610140830135601755610160830135601855610180830135601a556101a08301356021556101c0830160266105668282610706565b5061056e9050565b507f33774e659306e47509050e97cb651e731180a42d458212294d30751925c551a292915050565b7f8e94fed44239eb2314ab7a406345e6c5a8f0ccedf3b600de3d004e672c33abf4805460019091558015610626576040517f08c379a000000000000000000000000000000000000000000000000000000000815260206004820152600260248201527f314200000000000000000000000000000000000000000000000000000000000060448201526064016100e7565b50565b6000610280828403121561063c57600080fd5b50919050565b73ffffffffffffffffffffffffffffffffffffffff8116811461062657600080fd5b60006020828403121561067657600080fd5b813561068181610642565b9392505050565b67ffffffffffffffff8116811461062657600080fd5b6000602082840312156106b057600080fd5b813561068181610688565b6000602082840312156106cd57600080fd5b8135801515811461068157600080fd5b6000813563ffffffff811681146106f357600080fd5b92915050565b600081356106f381610688565b81356002811061071557600080fd5b815460ff82169150817fffffffffffffffffffffffffffffffffffffffffffffffffffffffffffffff00821617835564ffffffff00610756602086016106dd565b60081b1680837fffffffffffffffffffffffffffffffffffffffffffffffffffffff000000000084161717845568ffffffff0000000000610799604087016106dd565b60281b16837fffffffffffffffffffffffffffffffffffffffffffffff00000000000000000084161782171784555050506108176107d9606084016106dd565b82547fffffffffffffffffffffffffffffffffffffff00000000ffffffffffffffffff1660489190911b6cffffffff00000000000000000016178255565b610868610826608084016106dd565b82547fffffffffffffffffffffffffffffff00000000ffffffffffffffffffffffffff1660689190911b70ffffffff0000000000000000000000000016178255565b6108c161087760a084016106f9565b82547fffffffffffffff0000000000000000ffffffffffffffffffffffffffffffffff1660889190911b78ffffffffffffffff000000000000000000000000000000000016178255565b505056fea2646970667358221220863c0346e17dca4ed96fd62fb3055e0ea4655c6993bd843ecb47b5162776f37c64736f6c63430008140033",
  "linkReferences": {},
  "deployedLinkReferences": {}
}