{
  "_format": "hh-sol-artifact-1",
  "contractName": "ExecutorFacet",
  "sourceName": "cache/solpp-generated-contracts/zksync/facets/Executor.sol",
  "abi": [
    {
      "anonymous": false,
      "inputs": [
        {
          "indexed": true,
          "internalType": "uint256",
          "name": "batchNumber",
          "type": "uint256"
        },
        {
          "indexed": true,
          "internalType": "bytes32",
          "name": "batchHash",
          "type": "bytes32"
        },
        {
          "indexed": true,
          "internalType": "bytes32",
          "name": "commitment",
          "type": "bytes32"
        }
      ],
      "name": "BlockCommit",
      "type": "event"
    },
    {
      "anonymous": false,
      "inputs": [
        {
          "indexed": true,
          "internalType": "uint256",
          "name": "batchNumber",
          "type": "uint256"
        },
        {
          "indexed": true,
          "internalType": "bytes32",
          "name": "batchHash",
          "type": "bytes32"
        },
        {
          "indexed": true,
          "internalType": "bytes32",
          "name": "commitment",
          "type": "bytes32"
        }
      ],
      "name": "BlockExecution",
      "type": "event"
    },
    {
      "anonymous": false,
      "inputs": [
        {
          "indexed": false,
          "internalType": "uint256",
          "name": "totalBatchesCommitted",
          "type": "uint256"
        },
        {
          "indexed": false,
          "internalType": "uint256",
          "name": "totalBatchesVerified",
          "type": "uint256"
        },
        {
          "indexed": false,
          "internalType": "uint256",
          "name": "totalBatchesExecuted",
          "type": "uint256"
        }
      ],
      "name": "BlocksRevert",
      "type": "event"
    },
    {
      "anonymous": false,
      "inputs": [
        {
          "indexed": true,
          "internalType": "uint256",
          "name": "previousLastVerifiedBatch",
          "type": "uint256"
        },
        {
          "indexed": true,
          "internalType": "uint256",
          "name": "currentLastVerifiedBatch",
          "type": "uint256"
        }
      ],
      "name": "BlocksVerification",
      "type": "event"
    },
    {
      "inputs": [
        {
          "components": [
            {
              "internalType": "uint64",
              "name": "batchNumber",
              "type": "uint64"
            },
            {
              "internalType": "bytes32",
              "name": "batchHash",
              "type": "bytes32"
            },
            {
              "internalType": "uint64",
              "name": "indexRepeatedStorageChanges",
              "type": "uint64"
            },
            {
              "internalType": "uint256",
              "name": "numberOfLayer1Txs",
              "type": "uint256"
            },
            {
              "internalType": "bytes32",
              "name": "priorityOperationsHash",
              "type": "bytes32"
            },
            {
              "internalType": "bytes32",
              "name": "l2LogsTreeRoot",
              "type": "bytes32"
            },
            {
              "internalType": "uint256",
              "name": "timestamp",
              "type": "uint256"
            },
            {
              "internalType": "bytes32",
              "name": "commitment",
              "type": "bytes32"
            }
          ],
          "internalType": "struct IExecutor.StoredBatchInfo",
          "name": "_lastCommittedBatchData",
          "type": "tuple"
        },
        {
          "components": [
            {
              "internalType": "uint64",
              "name": "batchNumber",
              "type": "uint64"
            },
            {
              "internalType": "uint64",
              "name": "timestamp",
              "type": "uint64"
            },
            {
              "internalType": "uint64",
              "name": "indexRepeatedStorageChanges",
              "type": "uint64"
            },
            {
              "internalType": "bytes32",
              "name": "newStateRoot",
              "type": "bytes32"
            },
            {
              "internalType": "uint256",
              "name": "numberOfLayer1Txs",
              "type": "uint256"
            },
            {
              "internalType": "bytes32",
              "name": "priorityOperationsHash",
              "type": "bytes32"
            },
            {
              "internalType": "bytes32",
              "name": "bootloaderHeapInitialContentsHash",
              "type": "bytes32"
            },
            {
              "internalType": "bytes32",
              "name": "eventsQueueStateHash",
              "type": "bytes32"
            },
            {
              "internalType": "bytes",
              "name": "systemLogs",
              "type": "bytes"
            },
            {
              "internalType": "bytes",
              "name": "totalL2ToL1Pubdata",
              "type": "bytes"
            }
          ],
          "internalType": "struct IExecutor.CommitBatchInfo[]",
          "name": "_newBatchesData",
          "type": "tuple[]"
        }
      ],
      "name": "commitBatches",
      "outputs": [],
      "stateMutability": "nonpayable",
      "type": "function"
    },
    {
      "inputs": [
        {
          "components": [
            {
              "internalType": "uint64",
              "name": "batchNumber",
              "type": "uint64"
            },
            {
              "internalType": "bytes32",
              "name": "batchHash",
              "type": "bytes32"
            },
            {
              "internalType": "uint64",
              "name": "indexRepeatedStorageChanges",
              "type": "uint64"
            },
            {
              "internalType": "uint256",
              "name": "numberOfLayer1Txs",
              "type": "uint256"
            },
            {
              "internalType": "bytes32",
              "name": "priorityOperationsHash",
              "type": "bytes32"
            },
            {
              "internalType": "bytes32",
              "name": "l2LogsTreeRoot",
              "type": "bytes32"
            },
            {
              "internalType": "uint256",
              "name": "timestamp",
              "type": "uint256"
            },
            {
              "internalType": "bytes32",
              "name": "commitment",
              "type": "bytes32"
            }
          ],
          "internalType": "struct IExecutor.StoredBatchInfo[]",
          "name": "_batchesData",
          "type": "tuple[]"
        }
      ],
      "name": "executeBatches",
      "outputs": [],
      "stateMutability": "nonpayable",
      "type": "function"
    },
    {
      "inputs": [],
      "name": "getName",
      "outputs": [
        {
          "internalType": "string",
          "name": "",
          "type": "string"
        }
      ],
      "stateMutability": "view",
      "type": "function"
    },
    {
      "inputs": [
        {
          "components": [
            {
              "internalType": "uint64",
              "name": "batchNumber",
              "type": "uint64"
            },
            {
              "internalType": "bytes32",
              "name": "batchHash",
              "type": "bytes32"
            },
            {
              "internalType": "uint64",
              "name": "indexRepeatedStorageChanges",
              "type": "uint64"
            },
            {
              "internalType": "uint256",
              "name": "numberOfLayer1Txs",
              "type": "uint256"
            },
            {
              "internalType": "bytes32",
              "name": "priorityOperationsHash",
              "type": "bytes32"
            },
            {
              "internalType": "bytes32",
              "name": "l2LogsTreeRoot",
              "type": "bytes32"
            },
            {
              "internalType": "uint256",
              "name": "timestamp",
              "type": "uint256"
            },
            {
              "internalType": "bytes32",
              "name": "commitment",
              "type": "bytes32"
            }
          ],
          "internalType": "struct IExecutor.StoredBatchInfo",
          "name": "_prevBatch",
          "type": "tuple"
        },
        {
          "components": [
            {
              "internalType": "uint64",
              "name": "batchNumber",
              "type": "uint64"
            },
            {
              "internalType": "bytes32",
              "name": "batchHash",
              "type": "bytes32"
            },
            {
              "internalType": "uint64",
              "name": "indexRepeatedStorageChanges",
              "type": "uint64"
            },
            {
              "internalType": "uint256",
              "name": "numberOfLayer1Txs",
              "type": "uint256"
            },
            {
              "internalType": "bytes32",
              "name": "priorityOperationsHash",
              "type": "bytes32"
            },
            {
              "internalType": "bytes32",
              "name": "l2LogsTreeRoot",
              "type": "bytes32"
            },
            {
              "internalType": "uint256",
              "name": "timestamp",
              "type": "uint256"
            },
            {
              "internalType": "bytes32",
              "name": "commitment",
              "type": "bytes32"
            }
          ],
          "internalType": "struct IExecutor.StoredBatchInfo[]",
          "name": "_committedBatches",
          "type": "tuple[]"
        },
        {
          "components": [
            {
              "internalType": "uint256[]",
              "name": "recursiveAggregationInput",
              "type": "uint256[]"
            },
            {
              "internalType": "uint256[]",
              "name": "serializedProof",
              "type": "uint256[]"
            }
          ],
          "internalType": "struct IExecutor.ProofInput",
          "name": "_proof",
          "type": "tuple"
        }
      ],
      "name": "proveBatches",
      "outputs": [],
      "stateMutability": "nonpayable",
      "type": "function"
    },
    {
      "inputs": [
        {
          "internalType": "uint256",
          "name": "_newLastBatch",
          "type": "uint256"
        }
      ],
      "name": "revertBatches",
      "outputs": [],
      "stateMutability": "nonpayable",
      "type": "function"
    }
  ],
  "bytecode": "0x608060405234801561001057600080fd5b50612ab6806100206000396000f3fe608060405234801561001057600080fd5b50600436106100675760003560e01c80637f61885c116100505780637f61885c146100d357806397c09d34146100e6578063c3d93e7c146100f957600080fd5b806317d7de7c1461006c578063701f58c5146100be575b600080fd5b6100a86040518060400160405280600d81526020017f4578656375746f7246616365740000000000000000000000000000000000000081525081565b6040516100b59190612420565b60405180910390f35b6100d16100cc36600461259d565b61010c565b005b6100d16100e1366004612672565b610391565b6100d16100f43660046126fc565b610829565b6100d1610107366004612715565b610abd565b7f8e94fed44239eb2314ab7a406345e6c5a8f0ccedf3b600de3d004e672c33abf4546001811461019d576040517f08c379a000000000000000000000000000000000000000000000000000000000815260206004820152600260248201527f723100000000000000000000000000000000000000000000000000000000000060448201526064015b60405180910390fd5b60027f8e94fed44239eb2314ab7a406345e6c5a8f0ccedf3b600de3d004e672c33abf4553360009081526009602052604090205460ff1661023a576040517f08c379a000000000000000000000000000000000000000000000000000000000815260206004820152600260248201527f31680000000000000000000000000000000000000000000000000000000000006044820152606401610194565b61024384610d99565b600d546000908152600e6020526040902054146102bc576040517f08c379a000000000000000000000000000000000000000000000000000000000815260206004820152600160248201527f69000000000000000000000000000000000000000000000000000000000000006044820152606401610194565b81610323576040517f08c379a000000000000000000000000000000000000000000000000000000000815260206004820152601460248201527f4e6f206261746368657320746f20636f6d6d69740000000000000000000000006044820152606401610194565b602254801580610334575060235415155b1561034957610344858585610e2b565b610355565b61035585858584610ed7565b600d54610363908490612786565b600d55505060017f8e94fed44239eb2314ab7a406345e6c5a8f0ccedf3b600de3d004e672c33abf455505050565b7f8e94fed44239eb2314ab7a406345e6c5a8f0ccedf3b600de3d004e672c33abf4546001811461041d576040517f08c379a000000000000000000000000000000000000000000000000000000000815260206004820152600260248201527f72310000000000000000000000000000000000000000000000000000000000006044820152606401610194565b60027f8e94fed44239eb2314ab7a406345e6c5a8f0ccedf3b600de3d004e672c33abf4553360009081526009602052604090205460ff166104ba576040517f08c379a000000000000000000000000000000000000000000000000000000000815260206004820152600260248201527f31680000000000000000000000000000000000000000000000000000000000006044820152606401610194565b600c54604080516060810182526014548152601554602082015260165491810191909152849060008267ffffffffffffffff8111156104fb576104fb61248c565b604051908082528060200260200182016040528015610524578160200160208202803683370190505b506000858152600e602052604090205490915061054e610549368c90038c018c612799565b610d99565b146105b5576040517f08c379a000000000000000000000000000000000000000000000000000000000815260206004820152600260248201527f74310000000000000000000000000000000000000000000000000000000000006044820152606401610194565b60e089013560005b8481101561072757600186016000818152600e60205260409020549096506106078b8b848181106105f0576105f06127bd565b905061010002018036038101906105499190612799565b1461066e576040517f08c379a000000000000000000000000000000000000000000000000000000000815260206004820152600260248201527f6f310000000000000000000000000000000000000000000000000000000000006044820152606401610194565b60008a8a83818110610682576106826127bd565b9050610100020160e0013590506107008382878051602080830151604080518084018890529081018690526060810193909352608083015260009160a001604080517fffffffffffffffffffffffffffffffffffffffffffffffffffffffffffffffe08184030181529190528051602090910120901c949350505050565b848381518110610712576107126127bd565b602090810291909101015291506001016105bd565b50600d54851115610794576040517f08c379a000000000000000000000000000000000000000000000000000000000815260206004820152600160248201527f71000000000000000000000000000000000000000000000000000000000000006044820152606401610194565b466001036107a4576107a46127ec565b60006107b3602089018961281b565b905011156107c5576107c58288611041565b600c546040518691907f22c9005dd88c18b552a1cd7e8b3b937fcde9ca69213c1f658f54d572e4877a8190600090a3505050600c91909155505060017f8e94fed44239eb2314ab7a406345e6c5a8f0ccedf3b600de3d004e672c33abf45550505050565b7f8e94fed44239eb2314ab7a406345e6c5a8f0ccedf3b600de3d004e672c33abf454600181146108b5576040517f08c379a000000000000000000000000000000000000000000000000000000000815260206004820152600260248201527f72310000000000000000000000000000000000000000000000000000000000006044820152606401610194565b60027f8e94fed44239eb2314ab7a406345e6c5a8f0ccedf3b600de3d004e672c33abf4553360009081526009602052604090205460ff16610952576040517f08c379a000000000000000000000000000000000000000000000000000000000815260206004820152600260248201527f31680000000000000000000000000000000000000000000000000000000000006044820152606401610194565b600d5482106109bd576040517f08c379a000000000000000000000000000000000000000000000000000000000815260206004820152600260248201527f76310000000000000000000000000000000000000000000000000000000000006044820152606401610194565b600b54821015610a29576040517f08c379a000000000000000000000000000000000000000000000000000000000815260206004820152600260248201527f76320000000000000000000000000000000000000000000000000000000000006044820152606401610194565b600c54821015610a3957600c8290555b600d829055602354821015610a4e5760006023555b600d54600c54600b5460408051938452602084019290925282820152517f8bd4b15ea7d1bc41ea9abc3fc487ccb89cd678a00786584714faa9d751c84ee59181900360600190a160017f8e94fed44239eb2314ab7a406345e6c5a8f0ccedf3b600de3d004e672c33abf4555050565b7f8e94fed44239eb2314ab7a406345e6c5a8f0ccedf3b600de3d004e672c33abf45460018114610b49576040517f08c379a000000000000000000000000000000000000000000000000000000000815260206004820152600260248201527f72310000000000000000000000000000000000000000000000000000000000006044820152606401610194565b60027f8e94fed44239eb2314ab7a406345e6c5a8f0ccedf3b600de3d004e672c33abf4553360009081526009602052604090205460ff16610be6576040517f08c379a000000000000000000000000000000000000000000000000000000000815260206004820152600260248201527f31680000000000000000000000000000000000000000000000000000000000006044820152606401610194565b8160005b81811015610cc557610c24858583818110610c0757610c076127bd565b90506101000201803603810190610c1e9190612799565b826111b4565b848482818110610c3657610c366127bd565b9050610100020160e00135858583818110610c5357610c536127bd565b9050610100020160200135868684818110610c7057610c706127bd565b610c87926020610100909202019081019150612883565b67ffffffffffffffff167f2402307311a4d6604e4e7b4c8a15a7e1213edb39c16a31efa70afb06030d316560405160405180910390a4600101610bea565b50600b54600090610cd7908390612786565b600b819055600c54909150811115610d4b576040517f08c379a000000000000000000000000000000000000000000000000000000000815260206004820152600160248201527f6e000000000000000000000000000000000000000000000000000000000000006044820152606401610194565b6023548015801590610d5d5750818111155b15610d6d57600060228190556023555b50505060017f8e94fed44239eb2314ab7a406345e6c5a8f0ccedf3b600de3d004e672c33abf455505050565b600081604051602001610e0e919060006101008201905067ffffffffffffffff8084511683526020840151602084015280604085015116604084015250606083015160608301526080830151608083015260a083015160a083015260c083015160c083015260e083015160e083015292915050565b604051602081830303815290604052805190602001209050919050565b60005b81811015610ed157610e6584848484818110610e4c57610e4c6127bd565b9050602002810190610e5e919061289e565b600061135e565b9350610e7084610d99565b845167ffffffffffffffff9081166000908152600e602090815260408083209490945560e088015190880151885194519194909316917f8f2916b2f2d78cc5890ead36c06c0f6d5d112c7e103589947e8e2f0d6eddb76391a4600101610e2e565b50505050565b60235415610f41576040517f08c379a000000000000000000000000000000000000000000000000000000000815260206004820152600260248201527f696b0000000000000000000000000000000000000000000000000000000000006044820152606401610194565b82826000818110610f5457610f546127bd565b9050602002810190610f66919061289e565b610f74906020810190612883565b67ffffffffffffffff1660235560005b8281101561103a5760008115610f9b576000610f9d565b825b9050610fcd86868685818110610fb557610fb56127bd565b9050602002810190610fc7919061289e565b8361135e565b9550610fd886610d99565b865167ffffffffffffffff9081166000908152600e602090815260408083209490945560e08a0151908a01518a5194519194909316917f8f2916b2f2d78cc5890ead36c06c0f6d5d112c7e103589947e8e2f0d6eddb76391a450600101610f84565b5050505050565b81516001146110ac576040517f08c379a000000000000000000000000000000000000000000000000000000000815260206004820152600260248201527f74340000000000000000000000000000000000000000000000000000000000006044820152606401610194565b600a5460009073ffffffffffffffffffffffffffffffffffffffff166387d9d023846110db602086018661281b565b6110e5878061281b565b6040518663ffffffff1660e01b8152600401611105959493929190612927565b602060405180830381865afa158015611122573d6000803e3d6000fd5b505050506040513d601f19601f820116820180604052508101906111469190612997565b9050806111af576040517f08c379a000000000000000000000000000000000000000000000000000000000815260206004820152600160248201527f70000000000000000000000000000000000000000000000000000000000000006044820152606401610194565b505050565b8151600b5467ffffffffffffffff909116906111d1908390612786565b6111dc906001612786565b8114611244576040517f08c379a000000000000000000000000000000000000000000000000000000000815260206004820152600160248201527f6b000000000000000000000000000000000000000000000000000000000000006044820152606401610194565b6000818152600e602052604090205461125c84610d99565b146112c3576040517f08c379a000000000000000000000000000000000000000000000000000000000815260206004820152600560248201527f65786531300000000000000000000000000000000000000000000000000000006044820152606401610194565b60006112d28460600151611671565b905083608001518114611341576040517f08c379a000000000000000000000000000000000000000000000000000000000815260206004820152600160248201527f78000000000000000000000000000000000000000000000000000000000000006044820152606401610194565b5060a0909201516000928352600f60205260409092209190915550565b6040805161010081018252600080825260208201819052918101829052606081018290526080810182905260a0810182905260c0810182905260e081019190915283516113ac9060016129b9565b67ffffffffffffffff166113c36020850185612883565b67ffffffffffffffff1614611434576040517f08c379a000000000000000000000000000000000000000000000000000000000815260206004820152600160248201527f66000000000000000000000000000000000000000000000000000000000000006044820152606401610194565b60008060008060008061144789896116f9565b955095509550955095509550838a60200151146114c0576040517f08c379a000000000000000000000000000000000000000000000000000000000815260206004820152600160248201527f6c000000000000000000000000000000000000000000000000000000000000006044820152606401610194565b8860a00135851461152d576040517f08c379a000000000000000000000000000000000000000000000000000000000815260206004820152600160248201527f74000000000000000000000000000000000000000000000000000000000000006044820152606401610194565b8860800135861461159a576040517f08c379a000000000000000000000000000000000000000000000000000000000815260206004820152600260248201527f74610000000000000000000000000000000000000000000000000000000000006044820152606401610194565b6115c2816115ae60408c0160208d01612883565b67ffffffffffffffff168c60c00151611ef2565b60006115ce8a856120c7565b604080516101008101909152909150806115eb60208d018d612883565b67ffffffffffffffff16815260608c018035602083015260409182019161161491908e01612883565b67ffffffffffffffff1681526020018b6080013581526020018b60a0013581526020018481526020018b60200160208101906116509190612883565b67ffffffffffffffff168152602001919091529a9950505050505050505050565b7fc5d2460186f7233c927e7db2dcc703c0e500b653ca82273b7bfad8045d85a47060005b828110156116f35760006116a9601061217d565b80516040519192506116c991859190602001918252602082015260400190565b604051602081830303815290604052805190602001209250506116ec8160010190565b9050611695565b50919050565b600080808080808061170f6101008a018a6129e1565b8080601f01602080910402602001604051908101604052809392919081815260200183838082843760009201829052509394508392506117569150506101208c018c6129e1565b604051611764929190612a46565b6040518091039020905060005b8351811015611e065760006117998561178b600485612786565b601491810182015192910190565b50905060006117bb866117ad601886612786565b602091810182015192910190565b50905060006117cf876117ad603887612786565b509050600160ff83161b861615611842576040517f08c379a000000000000000000000000000000000000000000000000000000000815260206004820152600260248201527f6b700000000000000000000000000000000000000000000000000000000000006044820152606401610194565b600160ff83161b86179550816118db5773ffffffffffffffffffffffffffffffffffffffff8316618008146118d3576040517f08c379a000000000000000000000000000000000000000000000000000000000815260206004820152600260248201527f6c6d0000000000000000000000000000000000000000000000000000000000006044820152606401610194565b809850611dfb565b600182036119d25773ffffffffffffffffffffffffffffffffffffffff831661800814611964576040517f08c379a000000000000000000000000000000000000000000000000000000000815260206004820152600260248201527f6c6e0000000000000000000000000000000000000000000000000000000000006044820152606401610194565b8085146119cd576040517f08c379a000000000000000000000000000000000000000000000000000000000815260206004820152600260248201527f77700000000000000000000000000000000000000000000000000000000000006044820152606401610194565b611dfb565b60028203611a635773ffffffffffffffffffffffffffffffffffffffff831661800814611a5b576040517f08c379a000000000000000000000000000000000000000000000000000000000815260206004820152600260248201527f6c620000000000000000000000000000000000000000000000000000000000006044820152606401610194565b809950611dfb565b60038203611af45773ffffffffffffffffffffffffffffffffffffffff831661800b14611aec576040517f08c379a000000000000000000000000000000000000000000000000000000000815260206004820152600260248201527f73630000000000000000000000000000000000000000000000000000000000006044820152606401610194565b965086611dfb565b60048203611b855773ffffffffffffffffffffffffffffffffffffffff831661800b14611b7d576040517f08c379a000000000000000000000000000000000000000000000000000000000815260206004820152600260248201527f73760000000000000000000000000000000000000000000000000000000000006044820152606401610194565b809a50611dfb565b60058203611c165773ffffffffffffffffffffffffffffffffffffffff831661800114611c0e576040517f08c379a000000000000000000000000000000000000000000000000000000000815260206004820152600260248201527f626c0000000000000000000000000000000000000000000000000000000000006044820152606401610194565b809b50611dfb565b60068203611ca75773ffffffffffffffffffffffffffffffffffffffff831661800114611c9f576040517f08c379a000000000000000000000000000000000000000000000000000000000815260206004820152600260248201527f626b0000000000000000000000000000000000000000000000000000000000006044820152606401610194565b9b508b611dfb565b60078203611d995773ffffffffffffffffffffffffffffffffffffffff831661800114611d30576040517f08c379a000000000000000000000000000000000000000000000000000000000815260206004820152600260248201527f62750000000000000000000000000000000000000000000000000000000000006044820152606401610194565b808e146119cd576040517f08c379a000000000000000000000000000000000000000000000000000000000815260206004820152600260248201527f75740000000000000000000000000000000000000000000000000000000000006044820152606401610194565b6040517f08c379a000000000000000000000000000000000000000000000000000000000815260206004820152600260248201527f756c0000000000000000000000000000000000000000000000000000000000006044820152606401610194565b505050605801611771565b5089611e7b5781607f14611e76576040517f08c379a000000000000000000000000000000000000000000000000000000000815260206004820152600260248201527f62370000000000000000000000000000000000000000000000000000000000006044820152606401610194565b611ee5565b8160ff14611ee5576040517f08c379a000000000000000000000000000000000000000000000000000000000815260206004820152600260248201527f62380000000000000000000000000000000000000000000000000000000000006044820152606401610194565b5050509295509295509295565b608083901c828114611f60576040517f08c379a000000000000000000000000000000000000000000000000000000000815260206004820152600260248201527f74620000000000000000000000000000000000000000000000000000000000006044820152606401610194565b808210611fc9576040517f08c379a000000000000000000000000000000000000000000000000000000000815260206004820152600260248201527f68330000000000000000000000000000000000000000000000000000000000006044820152606401610194565b6fffffffffffffffffffffffffffffffff841681611fea6203f48042612a56565b1115612052576040517f08c379a000000000000000000000000000000000000000000000000000000000815260206004820152600260248201527f68310000000000000000000000000000000000000000000000000000000000006044820152606401610194565b61205e610e1042612786565b81111561103a576040517f08c379a000000000000000000000000000000000000000000000000000000000815260206004820152600260248201527f68320000000000000000000000000000000000000000000000000000000000006044820152606401610194565b6000806120d384612299565b805190602001209050600061212360195460175460185460405160ff909316151560f81b602084015260218301919091526041820152606090606101604051602081830303815290604052905090565b8051906020012090506000612138868661230b565b80516020918201206040805192830186905282018490526060820181905291506080016040516020818303038152906040528051906020012093505050505b92915050565b6040805160608101825260008082526020820181905291810191909152600282015460018301540361220b576040517f08c379a000000000000000000000000000000000000000000000000000000000815260206004820152600160248201527f73000000000000000000000000000000000000000000000000000000000000006044820152606401610194565b5060028101546000818152602083815260408083208151606081018352815481526001808301805467ffffffffffffffff81168488015268010000000000000000900477ffffffffffffffffffffffffffffffffffffffffffffffff1694830194909452868652938790529084905592905590919061228b908290612786565b836002018190555050919050565b60606122aa82820160408401612883565b60405160c09190911b7fffffffffffffffff0000000000000000000000000000000000000000000000001660208201526060830135602882015260006048820181905260508201526070016040516020818303038152906040529050919050565b606061231a6058610200612a69565b612325906004612786565b6123336101008501856129e1565b9050111561239d576040517f08c379a000000000000000000000000000000000000000000000000000000000815260206004820152600260248201527f70750000000000000000000000000000000000000000000000000000000000006044820152606401610194565b60006123ad6101008501856129e1565b6040516123bb929190612a46565b604080519182900382206020830181905290820185905260c086810135606084015260e0808801356080850152600060a08501819052918401829052830181905261010083015291506101200160405160208183030381529060405291505092915050565b600060208083528351808285015260005b8181101561244d57858101830151858201604001528201612431565b5060006040828601015260407fffffffffffffffffffffffffffffffffffffffffffffffffffffffffffffffe0601f8301168501019250505092915050565b7f4e487b7100000000000000000000000000000000000000000000000000000000600052604160045260246000fd5b803567ffffffffffffffff811681146124d357600080fd5b919050565b60006101008083850312156124ec57600080fd5b6040519081019067ffffffffffffffff82118183101715612536577f4e487b7100000000000000000000000000000000000000000000000000000000600052604160045260246000fd5b81604052809250612546846124bb565b81526020840135602082015261255e604085016124bb565b6040820152606084013560608201526080840135608082015260a084013560a082015260c084013560c082015260e084013560e0820152505092915050565b600080600061012084860312156125b357600080fd5b6125bd85856124d8565b925061010084013567ffffffffffffffff808211156125db57600080fd5b818601915086601f8301126125ef57600080fd5b8135818111156125fe57600080fd5b8760208260051b850101111561261357600080fd5b6020830194508093505050509250925092565b60008083601f84011261263857600080fd5b50813567ffffffffffffffff81111561265057600080fd5b6020830191508360208260081b850101111561266b57600080fd5b9250929050565b60008060008084860361014081121561268a57600080fd5b6101008082121561269a57600080fd5b869550850135905067ffffffffffffffff808211156126b857600080fd5b6126c488838901612626565b90955093506101208701359150808211156126de57600080fd5b508501604081880312156126f157600080fd5b939692955090935050565b60006020828403121561270e57600080fd5b5035919050565b6000806020838503121561272857600080fd5b823567ffffffffffffffff81111561273f57600080fd5b61274b85828601612626565b90969095509350505050565b7f4e487b7100000000000000000000000000000000000000000000000000000000600052601160045260246000fd5b8082018082111561217757612177612757565b600061010082840312156127ac57600080fd5b6127b683836124d8565b9392505050565b7f4e487b7100000000000000000000000000000000000000000000000000000000600052603260045260246000fd5b7f4e487b7100000000000000000000000000000000000000000000000000000000600052600160045260246000fd5b60008083357fffffffffffffffffffffffffffffffffffffffffffffffffffffffffffffffe184360301811261285057600080fd5b83018035915067ffffffffffffffff82111561286b57600080fd5b6020019150600581901b360382131561266b57600080fd5b60006020828403121561289557600080fd5b6127b6826124bb565b600082357ffffffffffffffffffffffffffffffffffffffffffffffffffffffffffffffec18336030181126128d257600080fd5b9190910192915050565b81835260007f07ffffffffffffffffffffffffffffffffffffffffffffffffffffffffffffff83111561290e57600080fd5b8260051b80836020870137939093016020019392505050565b606080825286519082018190526000906020906080840190828a01845b8281101561296057815184529284019290840190600101612944565b5050508381038285015261297581888a6128dc565b915050828103604084015261298b8185876128dc565b98975050505050505050565b6000602082840312156129a957600080fd5b815180151581146127b657600080fd5b67ffffffffffffffff8181168382160190808211156129da576129da612757565b5092915050565b60008083357fffffffffffffffffffffffffffffffffffffffffffffffffffffffffffffffe1843603018112612a1657600080fd5b83018035915067ffffffffffffffff821115612a3157600080fd5b60200191503681900382131561266b57600080fd5b8183823760009101908152919050565b8181038181111561217757612177612757565b80820281158282048414176121775761217761275756fea26469706673582212206ef46bb7e591be0567934bd32f93cdcf7e2c9ee54cda0ab74a9a6f77758158a764736f6c63430008140033",
  "linkReferences": {},
  "deployedLinkReferences": {}
}