{
  "_format": "hh-sol-artifact-1",
  "contractName": "GettersFacet",
  "sourceName": "cache/solpp-generated-contracts/zksync/facets/Getters.sol",
  "abi": [
    {
      "inputs": [
        {
          "internalType": "bytes4",
          "name": "_selector",
          "type": "bytes4"
        }
      ],
      "name": "facetAddress",
      "outputs": [
        {
          "internalType": "address",
          "name": "",
          "type": "address"
        }
      ],
      "stateMutability": "view",
      "type": "function"
    },
    {
      "inputs": [],
      "name": "facetAddresses",
      "outputs": [
        {
          "internalType": "address[]",
          "name": "",
          "type": "address[]"
        }
      ],
      "stateMutability": "view",
      "type": "function"
    },
    {
      "inputs": [
        {
          "internalType": "address",
          "name": "_facet",
          "type": "address"
        }
      ],
      "name": "facetFunctionSelectors",
      "outputs": [
        {
          "internalType": "bytes4[]",
          "name": "",
          "type": "bytes4[]"
        }
      ],
      "stateMutability": "view",
      "type": "function"
    },
    {
      "inputs": [],
      "name": "facets",
      "outputs": [
        {
          "components": [
            {
              "internalType": "address",
              "name": "addr",
              "type": "address"
            },
            {
              "internalType": "bytes4[]",
              "name": "selectors",
              "type": "bytes4[]"
            }
          ],
          "internalType": "struct IGetters.Facet[]",
          "name": "result",
          "type": "tuple[]"
        }
      ],
      "stateMutability": "view",
      "type": "function"
    },
    {
      "inputs": [],
      "name": "getFirstUnprocessedPriorityTx",
      "outputs": [
        {
          "internalType": "uint256",
          "name": "",
          "type": "uint256"
        }
      ],
      "stateMutability": "view",
      "type": "function"
    },
    {
      "inputs": [],
      "name": "getGovernor",
      "outputs": [
        {
          "internalType": "address",
          "name": "",
          "type": "address"
        }
      ],
      "stateMutability": "view",
      "type": "function"
    },
    {
      "inputs": [],
      "name": "getL2BootloaderBytecodeHash",
      "outputs": [
        {
          "internalType": "bytes32",
          "name": "",
          "type": "bytes32"
        }
      ],
      "stateMutability": "view",
      "type": "function"
    },
    {
      "inputs": [],
      "name": "getL2DefaultAccountBytecodeHash",
      "outputs": [
        {
          "internalType": "bytes32",
          "name": "",
          "type": "bytes32"
        }
      ],
      "stateMutability": "view",
      "type": "function"
    },
    {
      "inputs": [],
      "name": "getL2SystemContractsUpgradeBatchNumber",
      "outputs": [
        {
          "internalType": "uint256",
          "name": "",
          "type": "uint256"
        }
      ],
      "stateMutability": "view",
      "type": "function"
    },
    {
      "inputs": [],
      "name": "getL2SystemContractsUpgradeBlockNumber",
      "outputs": [
        {
          "internalType": "uint256",
          "name": "",
          "type": "uint256"
        }
      ],
      "stateMutability": "view",
      "type": "function"
    },
    {
      "inputs": [],
      "name": "getL2SystemContractsUpgradeTxHash",
      "outputs": [
        {
          "internalType": "bytes32",
          "name": "",
          "type": "bytes32"
        }
      ],
      "stateMutability": "view",
      "type": "function"
    },
    {
      "inputs": [],
      "name": "getName",
      "outputs": [
        {
          "internalType": "string",
          "name": "",
          "type": "string"
        }
      ],
      "stateMutability": "view",
      "type": "function"
    },
    {
      "inputs": [],
      "name": "getPendingGovernor",
      "outputs": [
        {
          "internalType": "address",
          "name": "",
          "type": "address"
        }
      ],
      "stateMutability": "view",
      "type": "function"
    },
    {
      "inputs": [],
      "name": "getPriorityQueueSize",
      "outputs": [
        {
          "internalType": "uint256",
          "name": "",
          "type": "uint256"
        }
      ],
      "stateMutability": "view",
      "type": "function"
    },
    {
      "inputs": [],
      "name": "getPriorityTxMaxGasLimit",
      "outputs": [
        {
          "internalType": "uint256",
          "name": "",
          "type": "uint256"
        }
      ],
      "stateMutability": "view",
      "type": "function"
    },
    {
      "inputs": [],
      "name": "getProtocolVersion",
      "outputs": [
        {
          "internalType": "uint256",
          "name": "",
          "type": "uint256"
        }
      ],
      "stateMutability": "view",
      "type": "function"
    },
    {
      "inputs": [],
      "name": "getTotalBatchesCommitted",
      "outputs": [
        {
          "internalType": "uint256",
          "name": "",
          "type": "uint256"
        }
      ],
      "stateMutability": "view",
      "type": "function"
    },
    {
      "inputs": [],
      "name": "getTotalBatchesExecuted",
      "outputs": [
        {
          "internalType": "uint256",
          "name": "",
          "type": "uint256"
        }
      ],
      "stateMutability": "view",
      "type": "function"
    },
    {
      "inputs": [],
      "name": "getTotalBatchesVerified",
      "outputs": [
        {
          "internalType": "uint256",
          "name": "",
          "type": "uint256"
        }
      ],
      "stateMutability": "view",
      "type": "function"
    },
    {
      "inputs": [],
      "name": "getTotalBlocksCommitted",
      "outputs": [
        {
          "internalType": "uint256",
          "name": "",
          "type": "uint256"
        }
      ],
      "stateMutability": "view",
      "type": "function"
    },
    {
      "inputs": [],
      "name": "getTotalBlocksExecuted",
      "outputs": [
        {
          "internalType": "uint256",
          "name": "",
          "type": "uint256"
        }
      ],
      "stateMutability": "view",
      "type": "function"
    },
    {
      "inputs": [],
      "name": "getTotalBlocksVerified",
      "outputs": [
        {
          "internalType": "uint256",
          "name": "",
          "type": "uint256"
        }
      ],
      "stateMutability": "view",
      "type": "function"
    },
    {
      "inputs": [],
      "name": "getTotalPriorityTxs",
      "outputs": [
        {
          "internalType": "uint256",
          "name": "",
          "type": "uint256"
        }
      ],
      "stateMutability": "view",
      "type": "function"
    },
    {
      "inputs": [],
      "name": "getVerifier",
      "outputs": [
        {
          "internalType": "address",
          "name": "",
          "type": "address"
        }
      ],
      "stateMutability": "view",
      "type": "function"
    },
    {
      "inputs": [],
      "name": "getVerifierParams",
      "outputs": [
        {
          "components": [
            {
              "internalType": "bytes32",
              "name": "recursionNodeLevelVkHash",
              "type": "bytes32"
            },
            {
              "internalType": "bytes32",
              "name": "recursionLeafLevelVkHash",
              "type": "bytes32"
            },
            {
              "internalType": "bytes32",
              "name": "recursionCircuitsSetVksHash",
              "type": "bytes32"
            }
          ],
          "internalType": "struct VerifierParams",
          "name": "",
          "type": "tuple"
        }
      ],
      "stateMutability": "view",
      "type": "function"
    },
    {
      "inputs": [],
      "name": "isDiamondStorageFrozen",
      "outputs": [
        {
          "internalType": "bool",
          "name": "",
          "type": "bool"
        }
      ],
      "stateMutability": "view",
      "type": "function"
    },
    {
      "inputs": [
        {
          "internalType": "uint256",
          "name": "_l2BatchNumber",
          "type": "uint256"
        },
        {
          "internalType": "uint256",
          "name": "_l2MessageIndex",
          "type": "uint256"
        }
      ],
      "name": "isEthWithdrawalFinalized",
      "outputs": [
        {
          "internalType": "bool",
          "name": "",
          "type": "bool"
        }
      ],
      "stateMutability": "view",
      "type": "function"
    },
    {
      "inputs": [
        {
          "internalType": "address",
          "name": "_facet",
          "type": "address"
        }
      ],
      "name": "isFacetFreezable",
      "outputs": [
        {
          "internalType": "bool",
          "name": "isFreezable",
          "type": "bool"
        }
      ],
      "stateMutability": "view",
      "type": "function"
    },
    {
      "inputs": [
        {
          "internalType": "bytes4",
          "name": "_selector",
          "type": "bytes4"
        }
      ],
      "name": "isFunctionFreezable",
      "outputs": [
        {
          "internalType": "bool",
          "name": "",
          "type": "bool"
        }
      ],
      "stateMutability": "view",
      "type": "function"
    },
    {
      "inputs": [
        {
          "internalType": "address",
          "name": "_address",
          "type": "address"
        }
      ],
      "name": "isValidator",
      "outputs": [
        {
          "internalType": "bool",
          "name": "",
          "type": "bool"
        }
      ],
      "stateMutability": "view",
      "type": "function"
    },
    {
      "inputs": [
        {
          "internalType": "uint256",
          "name": "_batchNumber",
          "type": "uint256"
        }
      ],
      "name": "l2LogsRootHash",
      "outputs": [
        {
          "internalType": "bytes32",
          "name": "",
          "type": "bytes32"
        }
      ],
      "stateMutability": "view",
      "type": "function"
    },
    {
      "inputs": [],
      "name": "priorityQueueFrontOperation",
      "outputs": [
        {
          "components": [
            {
              "internalType": "bytes32",
              "name": "canonicalTxHash",
              "type": "bytes32"
            },
            {
              "internalType": "uint64",
              "name": "expirationTimestamp",
              "type": "uint64"
            },
            {
              "internalType": "uint192",
              "name": "layer2Tip",
              "type": "uint192"
            }
          ],
          "internalType": "struct PriorityOperation",
          "name": "",
          "type": "tuple"
        }
      ],
      "stateMutability": "view",
      "type": "function"
    },
    {
      "inputs": [
        {
          "internalType": "uint256",
          "name": "_batchNumber",
          "type": "uint256"
        }
      ],
      "name": "storedBatchHash",
      "outputs": [
        {
          "internalType": "bytes32",
          "name": "",
          "type": "bytes32"
        }
      ],
      "stateMutability": "view",
      "type": "function"
    },
    {
      "inputs": [
        {
          "internalType": "uint256",
          "name": "_batchNumber",
          "type": "uint256"
        }
      ],
      "name": "storedBlockHash",
      "outputs": [
        {
          "internalType": "bytes32",
          "name": "",
          "type": "bytes32"
        }
      ],
      "stateMutability": "view",
      "type": "function"
    }
  ],
  "bytecode": "0x608060405234801561001057600080fd5b50611060806100206000396000f3fe608060405234801561001057600080fd5b50600436106102265760003560e01c80639d1b5a811161012a578063cdffacc6116100bd578063e81e0ba11161008c578063facd743b11610071578063facd743b1461056a578063fd791f3c146105a3578063fe26699e1461054f57600080fd5b8063e81e0ba114610557578063ef3f0bae146104a257600080fd5b8063cdffacc6146104d0578063d86970d814610547578063db1f0bf91461054f578063e5355c751461047257600080fd5b8063b22dd78e116100f9578063b22dd78e146103ef578063b8c2f66f1461031f578063bd7c5412146104aa578063c3bbd2d7146104bd57600080fd5b80639d1b5a8114610472578063a1954fc51461047a578063adfca15e14610482578063af6a2dcd146104a257600080fd5b806352ef6b2c116101bd57806379823c9a1161018c5780637b30c8da116101715780637b30c8da1461042c5780638665b150146104345780639cd939e41461045257600080fd5b806379823c9a1461040f5780637a0ed6271461041757600080fd5b806352ef6b2c1461038457806356142d7a14610399578063631f4bac146103e757806374f4d30d146103ef57600080fd5b806333ce93fe116101f957806333ce93fe14610317578063396073821461031f57806346657fe9146103275780634fc07d751461036657600080fd5b80630ec6b0b71461022b57806317d7de7c1461024257806318e3a9411461028b57806329b98c67146102e1575b600080fd5b601a545b6040519081526020015b60405180910390f35b61027e6040518060400160405280600c81526020017f476574746572734661636574000000000000000000000000000000000000000081525081565b6040516102399190610cfa565b604080516060808201835260008083526020808401829052928401528251808201845260145480825260155482850190815260165492860192835285519182525193810193909352519282019290925201610239565b7fc8fcad8db84d3cc18b4c41d551ea0ee66dd599cde068d998e57d5e09332c131e5460ff165b6040519015158152602001610239565b60215461022f565b600b5461022f565b600a5473ffffffffffffffffffffffffffffffffffffffff165b60405173ffffffffffffffffffffffffffffffffffffffff9091168152602001610239565b60075473ffffffffffffffffffffffffffffffffffffffff16610341565b61038c6105ab565b6040516102399190610d66565b6103a161063d565b604080518251815260208084015167ffffffffffffffff16908201529181015177ffffffffffffffffffffffffffffffffffffffffffffffff1690820152606001610239565b61022f610669565b61022f6103fd366004610dc0565b6000908152600e602052604090205490565b60125461022f565b61041f610675565b6040516102399190610e36565b60225461022f565b60085473ffffffffffffffffffffffffffffffffffffffff16610341565b61022f610460366004610dc0565b6000908152600f602052604090205490565b60235461022f565b60115461022f565b610495610490366004610ede565b610886565b6040516102399190610f1b565b600c5461022f565b6103076104b8366004610f2e565b610986565b6103076104cb366004610ede565b6109aa565b6103416104de366004610f50565b7fffffffff000000000000000000000000000000000000000000000000000000001660009081527fc8fcad8db84d3cc18b4c41d551ea0ee66dd599cde068d998e57d5e09332c131b602052604090205473ffffffffffffffffffffffffffffffffffffffff1690565b60175461022f565b600d5461022f565b610307610565366004610f50565b610ac4565b610307610578366004610ede565b73ffffffffffffffffffffffffffffffffffffffff1660009081526009602052604090205460ff1690565b60185461022f565b606060007fc8fcad8db84d3cc18b4c41d551ea0ee66dd599cde068d998e57d5e09332c131b6002810180546040805160208084028201810190925282815293945083018282801561063257602002820191906000526020600020905b815473ffffffffffffffffffffffffffffffffffffffff168152600190910190602001808311610607575b505050505091505090565b60408051606081018252600080825260208201819052918101919091526106646010610bee565b905090565b60006106646010610ce4565b7fc8fcad8db84d3cc18b4c41d551ea0ee66dd599cde068d998e57d5e09332c131d546060907fc8fcad8db84d3cc18b4c41d551ea0ee66dd599cde068d998e57d5e09332c131b908067ffffffffffffffff8111156106d5576106d5610f92565b60405190808252806020026020018201604052801561071b57816020015b6040805180820190915260008152606060208201528152602001906001900390816106f35790505b50925060005b8181101561088057600083600201828154811061074057610740610fc1565b600091825260208083209091015473ffffffffffffffffffffffffffffffffffffffff1680835260018701825260408084208151815460609581028201860184529281018381529396509390928492909184919084018282801561080557602002820191906000526020600020906000905b82829054906101000a900460e01b7bffffffffffffffffffffffffffffffffffffffffffffffffffffffff1916815260200190600401906020826003010492830192600103820291508084116107b25790505b50505091835250506001919091015461ffff166020918201526040805180820190915273ffffffffffffffffffffffffffffffffffffffff8516815282519181019190915287519192509087908590811061086257610862610fc1565b602002602001018190525050506108798160010190565b9050610721565b50505090565b73ffffffffffffffffffffffffffffffffffffffff811660009081527fc8fcad8db84d3cc18b4c41d551ea0ee66dd599cde068d998e57d5e09332c131c602090815260409182902080548351818402810184019094528084526060937fc8fcad8db84d3cc18b4c41d551ea0ee66dd599cde068d998e57d5e09332c131b939092919083018282801561097957602002820191906000526020600020906000905b82829054906101000a900460e01b7bffffffffffffffffffffffffffffffffffffffffffffffffffffffff1916815260200190600401906020826003010492830192600103820291508084116109265790505b5050505050915050919050565b6000828152601d6020908152604080832084845290915290205460ff165b92915050565b73ffffffffffffffffffffffffffffffffffffffff811660009081527fc8fcad8db84d3cc18b4c41d551ea0ee66dd599cde068d998e57d5e09332c131c60205260408120547fc8fcad8db84d3cc18b4c41d551ea0ee66dd599cde068d998e57d5e09332c131b908015610abd5773ffffffffffffffffffffffffffffffffffffffff84166000908152600183016020526040812080548290610a4e57610a4e610fc1565b6000918252602080832060088304015460079092166004026101000a90910460e01b7fffffffff000000000000000000000000000000000000000000000000000000001682528490526040902054760100000000000000000000000000000000000000000000900460ff169350505b5050919050565b7fffffffff00000000000000000000000000000000000000000000000000000000811660009081527fc8fcad8db84d3cc18b4c41d551ea0ee66dd599cde068d998e57d5e09332c131b6020819052604082205473ffffffffffffffffffffffffffffffffffffffff16610b98576040517f08c379a000000000000000000000000000000000000000000000000000000000815260206004820152600260248201527f673200000000000000000000000000000000000000000000000000000000000060448201526064015b60405180910390fd5b7fffffffff00000000000000000000000000000000000000000000000000000000909216600090815260209290925250604090205460ff7601000000000000000000000000000000000000000000009091041690565b60408051606081018252600080825260208201819052918101919091526002820154600183015403610c7c576040517f08c379a000000000000000000000000000000000000000000000000000000000815260206004820152600160248201527f44000000000000000000000000000000000000000000000000000000000000006044820152606401610b8f565b5060028101546000908152602091825260409081902081516060810183528154815260019091015467ffffffffffffffff8116938201939093526801000000000000000090920477ffffffffffffffffffffffffffffffffffffffffffffffff169082015290565b6000816002015482600101546109a49190610ff0565b600060208083528351808285015260005b81811015610d2757858101830151858201604001528201610d0b565b5060006040828601015260407fffffffffffffffffffffffffffffffffffffffffffffffffffffffffffffffe0601f8301168501019250505092915050565b6020808252825182820181905260009190848201906040850190845b81811015610db457835173ffffffffffffffffffffffffffffffffffffffff1683529284019291840191600101610d82565b50909695505050505050565b600060208284031215610dd257600080fd5b5035919050565b600081518084526020808501945080840160005b83811015610e2b5781517fffffffff000000000000000000000000000000000000000000000000000000001687529582019590820190600101610ded565b509495945050505050565b60006020808301818452808551808352604092508286019150828160051b87010184880160005b83811015610ed0578883037fffffffffffffffffffffffffffffffffffffffffffffffffffffffffffffffc00185528151805173ffffffffffffffffffffffffffffffffffffffff168452870151878401879052610ebd87850182610dd9565b9588019593505090860190600101610e5d565b509098975050505050505050565b600060208284031215610ef057600080fd5b813573ffffffffffffffffffffffffffffffffffffffff81168114610f1457600080fd5b9392505050565b602081526000610f146020830184610dd9565b60008060408385031215610f4157600080fd5b50508035926020909101359150565b600060208284031215610f6257600080fd5b81357fffffffff0000000000000000000000000000000000000000000000000000000081168114610f1457600080fd5b7f4e487b7100000000000000000000000000000000000000000000000000000000600052604160045260246000fd5b7f4e487b7100000000000000000000000000000000000000000000000000000000600052603260045260246000fd5b818103818111156109a4577f4e487b7100000000000000000000000000000000000000000000000000000000600052601160045260246000fdfea2646970667358221220447c0ccb63763e89a68fa39be2736220dec893f39d1d39f00be35361323630a564736f6c63430008140033",
  "linkReferences": {},
  "deployedLinkReferences": {}
}