{
  "_format": "hh-sol-artifact-1",
  "contractName": "GettersFacet",
  "sourceName": "cache/solpp-generated-contracts/zksync/facets/Getters.sol",
  "abi": [
    {
      "inputs": [
        {
          "internalType": "bytes4",
          "name": "_selector",
          "type": "bytes4"
        }
      ],
      "name": "facetAddress",
      "outputs": [
        {
          "internalType": "address",
          "name": "",
          "type": "address"
        }
      ],
      "stateMutability": "view",
      "type": "function"
    },
    {
      "inputs": [],
      "name": "facetAddresses",
      "outputs": [
        {
          "internalType": "address[]",
          "name": "",
          "type": "address[]"
        }
      ],
      "stateMutability": "view",
      "type": "function"
    },
    {
      "inputs": [
        {
          "internalType": "address",
          "name": "_facet",
          "type": "address"
        }
      ],
      "name": "facetFunctionSelectors",
      "outputs": [
        {
          "internalType": "bytes4[]",
          "name": "",
          "type": "bytes4[]"
        }
      ],
      "stateMutability": "view",
      "type": "function"
    },
    {
      "inputs": [],
      "name": "facets",
      "outputs": [
        {
          "components": [
            {
              "internalType": "address",
              "name": "addr",
              "type": "address"
            },
            {
              "internalType": "bytes4[]",
              "name": "selectors",
              "type": "bytes4[]"
            }
          ],
          "internalType": "struct IGetters.Facet[]",
          "name": "result",
          "type": "tuple[]"
        }
      ],
      "stateMutability": "view",
      "type": "function"
    },
    {
      "inputs": [],
      "name": "foobar",
      "outputs": [
        {
          "internalType": "uint256",
          "name": "",
          "type": "uint256"
        }
      ],
      "stateMutability": "view",
      "type": "function"
    },
    {
      "inputs": [],
      "name": "getFirstUnprocessedPriorityTx",
      "outputs": [
        {
          "internalType": "uint256",
          "name": "",
          "type": "uint256"
        }
      ],
      "stateMutability": "view",
      "type": "function"
    },
    {
      "inputs": [],
      "name": "getGovernor",
      "outputs": [
        {
          "internalType": "address",
          "name": "",
          "type": "address"
        }
      ],
      "stateMutability": "view",
      "type": "function"
    },
    {
      "inputs": [],
      "name": "getL2BootloaderBytecodeHash",
      "outputs": [
        {
          "internalType": "bytes32",
          "name": "",
          "type": "bytes32"
        }
      ],
      "stateMutability": "view",
      "type": "function"
    },
    {
      "inputs": [],
      "name": "getL2DefaultAccountBytecodeHash",
      "outputs": [
        {
          "internalType": "bytes32",
          "name": "",
          "type": "bytes32"
        }
      ],
      "stateMutability": "view",
      "type": "function"
    },
    {
      "inputs": [],
      "name": "getL2SystemContractsUpgradeBatchNumber",
      "outputs": [
        {
          "internalType": "uint256",
          "name": "",
          "type": "uint256"
        }
      ],
      "stateMutability": "view",
      "type": "function"
    },
    {
      "inputs": [],
      "name": "getL2SystemContractsUpgradeBlockNumber",
      "outputs": [
        {
          "internalType": "uint256",
          "name": "",
          "type": "uint256"
        }
      ],
      "stateMutability": "view",
      "type": "function"
    },
    {
      "inputs": [],
      "name": "getL2SystemContractsUpgradeTxHash",
      "outputs": [
        {
          "internalType": "bytes32",
          "name": "",
          "type": "bytes32"
        }
      ],
      "stateMutability": "view",
      "type": "function"
    },
    {
      "inputs": [],
      "name": "getName",
      "outputs": [
        {
          "internalType": "string",
          "name": "",
          "type": "string"
        }
      ],
      "stateMutability": "view",
      "type": "function"
    },
    {
      "inputs": [],
      "name": "getPendingGovernor",
      "outputs": [
        {
          "internalType": "address",
          "name": "",
          "type": "address"
        }
      ],
      "stateMutability": "view",
      "type": "function"
    },
    {
      "inputs": [],
      "name": "getPriorityQueueSize",
      "outputs": [
        {
          "internalType": "uint256",
          "name": "",
          "type": "uint256"
        }
      ],
      "stateMutability": "view",
      "type": "function"
    },
    {
      "inputs": [],
      "name": "getPriorityTxMaxGasLimit",
      "outputs": [
        {
          "internalType": "uint256",
          "name": "",
          "type": "uint256"
        }
      ],
      "stateMutability": "view",
      "type": "function"
    },
    {
      "inputs": [],
      "name": "getProtocolVersion",
      "outputs": [
        {
          "internalType": "uint256",
          "name": "",
          "type": "uint256"
        }
      ],
      "stateMutability": "view",
      "type": "function"
    },
    {
      "inputs": [],
      "name": "getTotalBatchesCommitted",
      "outputs": [
        {
          "internalType": "uint256",
          "name": "",
          "type": "uint256"
        }
      ],
      "stateMutability": "view",
      "type": "function"
    },
    {
      "inputs": [],
      "name": "getTotalBatchesExecuted",
      "outputs": [
        {
          "internalType": "uint256",
          "name": "",
          "type": "uint256"
        }
      ],
      "stateMutability": "view",
      "type": "function"
    },
    {
      "inputs": [],
      "name": "getTotalBatchesVerified",
      "outputs": [
        {
          "internalType": "uint256",
          "name": "",
          "type": "uint256"
        }
      ],
      "stateMutability": "view",
      "type": "function"
    },
    {
      "inputs": [],
      "name": "getTotalBlocksCommitted",
      "outputs": [
        {
          "internalType": "uint256",
          "name": "",
          "type": "uint256"
        }
      ],
      "stateMutability": "view",
      "type": "function"
    },
    {
      "inputs": [],
      "name": "getTotalBlocksExecuted",
      "outputs": [
        {
          "internalType": "uint256",
          "name": "",
          "type": "uint256"
        }
      ],
      "stateMutability": "view",
      "type": "function"
    },
    {
      "inputs": [],
      "name": "getTotalBlocksVerified",
      "outputs": [
        {
          "internalType": "uint256",
          "name": "",
          "type": "uint256"
        }
      ],
      "stateMutability": "view",
      "type": "function"
    },
    {
      "inputs": [],
      "name": "getTotalPriorityTxs",
      "outputs": [
        {
          "internalType": "uint256",
          "name": "",
          "type": "uint256"
        }
      ],
      "stateMutability": "view",
      "type": "function"
    },
    {
      "inputs": [],
      "name": "getVerifier",
      "outputs": [
        {
          "internalType": "address",
          "name": "",
          "type": "address"
        }
      ],
      "stateMutability": "view",
      "type": "function"
    },
    {
      "inputs": [],
      "name": "getVerifierParams",
      "outputs": [
        {
          "components": [
            {
              "internalType": "bytes32",
              "name": "recursionNodeLevelVkHash",
              "type": "bytes32"
            },
            {
              "internalType": "bytes32",
              "name": "recursionLeafLevelVkHash",
              "type": "bytes32"
            },
            {
              "internalType": "bytes32",
              "name": "recursionCircuitsSetVksHash",
              "type": "bytes32"
            }
          ],
          "internalType": "struct VerifierParams",
          "name": "",
          "type": "tuple"
        }
      ],
      "stateMutability": "view",
      "type": "function"
    },
    {
      "inputs": [],
      "name": "isDiamondStorageFrozen",
      "outputs": [
        {
          "internalType": "bool",
          "name": "",
          "type": "bool"
        }
      ],
      "stateMutability": "view",
      "type": "function"
    },
    {
      "inputs": [
        {
          "internalType": "uint256",
          "name": "_l2BatchNumber",
          "type": "uint256"
        },
        {
          "internalType": "uint256",
          "name": "_l2MessageIndex",
          "type": "uint256"
        }
      ],
      "name": "isEthWithdrawalFinalized",
      "outputs": [
        {
          "internalType": "bool",
          "name": "",
          "type": "bool"
        }
      ],
      "stateMutability": "view",
      "type": "function"
    },
    {
      "inputs": [
        {
          "internalType": "address",
          "name": "_facet",
          "type": "address"
        }
      ],
      "name": "isFacetFreezable",
      "outputs": [
        {
          "internalType": "bool",
          "name": "isFreezable",
          "type": "bool"
        }
      ],
      "stateMutability": "view",
      "type": "function"
    },
    {
      "inputs": [
        {
          "internalType": "bytes4",
          "name": "_selector",
          "type": "bytes4"
        }
      ],
      "name": "isFunctionFreezable",
      "outputs": [
        {
          "internalType": "bool",
          "name": "",
          "type": "bool"
        }
      ],
      "stateMutability": "view",
      "type": "function"
    },
    {
      "inputs": [
        {
          "internalType": "address",
          "name": "_address",
          "type": "address"
        }
      ],
      "name": "isValidator",
      "outputs": [
        {
          "internalType": "bool",
          "name": "",
          "type": "bool"
        }
      ],
      "stateMutability": "view",
      "type": "function"
    },
    {
      "inputs": [
        {
          "internalType": "uint256",
          "name": "_batchNumber",
          "type": "uint256"
        }
      ],
      "name": "l2LogsRootHash",
      "outputs": [
        {
          "internalType": "bytes32",
          "name": "",
          "type": "bytes32"
        }
      ],
      "stateMutability": "view",
      "type": "function"
    },
    {
      "inputs": [],
      "name": "priorityQueueFrontOperation",
      "outputs": [
        {
          "components": [
            {
              "internalType": "bytes32",
              "name": "canonicalTxHash",
              "type": "bytes32"
            },
            {
              "internalType": "uint64",
              "name": "expirationTimestamp",
              "type": "uint64"
            },
            {
              "internalType": "uint192",
              "name": "layer2Tip",
              "type": "uint192"
            }
          ],
          "internalType": "struct PriorityOperation",
          "name": "",
          "type": "tuple"
        }
      ],
      "stateMutability": "view",
      "type": "function"
    },
    {
      "inputs": [
        {
          "internalType": "uint256",
          "name": "_batchNumber",
          "type": "uint256"
        }
      ],
      "name": "storedBatchHash",
      "outputs": [
        {
          "internalType": "bytes32",
          "name": "",
          "type": "bytes32"
        }
      ],
      "stateMutability": "view",
      "type": "function"
    },
    {
      "inputs": [
        {
          "internalType": "uint256",
          "name": "_batchNumber",
          "type": "uint256"
        }
      ],
      "name": "storedBlockHash",
      "outputs": [
        {
          "internalType": "bytes32",
          "name": "",
          "type": "bytes32"
        }
      ],
      "stateMutability": "view",
      "type": "function"
    }
  ],
  "bytecode": "0x608060405234801561001057600080fd5b50611082806100206000396000f3fe608060405234801561001057600080fd5b50600436106102415760003560e01c80639cd939e411610145578063cdffacc6116100bd578063e81e0ba11161008c578063facd743b11610071578063facd743b1461058c578063fd791f3c146105c5578063fe26699e1461057157600080fd5b8063e81e0ba114610579578063ef3f0bae146104c457600080fd5b8063cdffacc6146104f2578063d86970d814610569578063db1f0bf914610571578063e5355c751461049457600080fd5b8063af6a2dcd11610114578063b8c2f66f116100f9578063b8c2f66f14610341578063bd7c5412146104cc578063c3bbd2d7146104df57600080fd5b8063af6a2dcd146104c4578063b22dd78e1461041157600080fd5b80639cd939e4146104745780639d1b5a8114610494578063a1954fc51461049c578063adfca15e146104a457600080fd5b80634fc07d75116101d857806374f4d30d116101a75780637a0ed6271161018c5780637a0ed627146104395780637b30c8da1461044e5780638665b1501461045657600080fd5b806374f4d30d1461041157806379823c9a1461043157600080fd5b80634fc07d751461038857806352ef6b2c146103a657806356142d7a146103bb578063631f4bac1461040957600080fd5b806329b98c671161021457806329b98c671461030357806333ce93fe14610339578063396073821461034157806346657fe91461034957600080fd5b806305df75db146102465780630ec6b0b71461025c57806317d7de7c1461026457806318e3a941146102ad575b600080fd5b600d5b6040519081526020015b60405180910390f35b601a54610249565b6102a06040518060400160405280600c81526020017f476574746572734661636574000000000000000000000000000000000000000081525081565b6040516102539190610d1c565b604080516060808201835260008083526020808401829052928401528251808201845260145480825260155482850190815260165492860192835285519182525193810193909352519282019290925201610253565b7fc8fcad8db84d3cc18b4c41d551ea0ee66dd599cde068d998e57d5e09332c131e5460ff165b6040519015158152602001610253565b602154610249565b600b54610249565b600a5473ffffffffffffffffffffffffffffffffffffffff165b60405173ffffffffffffffffffffffffffffffffffffffff9091168152602001610253565b60075473ffffffffffffffffffffffffffffffffffffffff16610363565b6103ae6105cd565b6040516102539190610d88565b6103c361065f565b604080518251815260208084015167ffffffffffffffff16908201529181015177ffffffffffffffffffffffffffffffffffffffffffffffff1690820152606001610253565b61024961068b565b61024961041f366004610de2565b6000908152600e602052604090205490565b601254610249565b610441610697565b6040516102539190610e58565b602254610249565b60085473ffffffffffffffffffffffffffffffffffffffff16610363565b610249610482366004610de2565b6000908152600f602052604090205490565b602354610249565b601154610249565b6104b76104b2366004610f00565b6108a8565b6040516102539190610f3d565b600c54610249565b6103296104da366004610f50565b6109a8565b6103296104ed366004610f00565b6109cc565b610363610500366004610f72565b7fffffffff000000000000000000000000000000000000000000000000000000001660009081527fc8fcad8db84d3cc18b4c41d551ea0ee66dd599cde068d998e57d5e09332c131b602052604090205473ffffffffffffffffffffffffffffffffffffffff1690565b601754610249565b600d54610249565b610329610587366004610f72565b610ae6565b61032961059a366004610f00565b73ffffffffffffffffffffffffffffffffffffffff1660009081526009602052604090205460ff1690565b601854610249565b606060007fc8fcad8db84d3cc18b4c41d551ea0ee66dd599cde068d998e57d5e09332c131b6002810180546040805160208084028201810190925282815293945083018282801561065457602002820191906000526020600020905b815473ffffffffffffffffffffffffffffffffffffffff168152600190910190602001808311610629575b505050505091505090565b60408051606081018252600080825260208201819052918101919091526106866010610c10565b905090565b60006106866010610d06565b7fc8fcad8db84d3cc18b4c41d551ea0ee66dd599cde068d998e57d5e09332c131d546060907fc8fcad8db84d3cc18b4c41d551ea0ee66dd599cde068d998e57d5e09332c131b908067ffffffffffffffff8111156106f7576106f7610fb4565b60405190808252806020026020018201604052801561073d57816020015b6040805180820190915260008152606060208201528152602001906001900390816107155790505b50925060005b818110156108a257600083600201828154811061076257610762610fe3565b600091825260208083209091015473ffffffffffffffffffffffffffffffffffffffff1680835260018701825260408084208151815460609581028201860184529281018381529396509390928492909184919084018282801561082757602002820191906000526020600020906000905b82829054906101000a900460e01b7bffffffffffffffffffffffffffffffffffffffffffffffffffffffff1916815260200190600401906020826003010492830192600103820291508084116107d45790505b50505091835250506001919091015461ffff166020918201526040805180820190915273ffffffffffffffffffffffffffffffffffffffff8516815282519181019190915287519192509087908590811061088457610884610fe3565b6020026020010181905250505061089b8160010190565b9050610743565b50505090565b73ffffffffffffffffffffffffffffffffffffffff811660009081527fc8fcad8db84d3cc18b4c41d551ea0ee66dd599cde068d998e57d5e09332c131c602090815260409182902080548351818402810184019094528084526060937fc8fcad8db84d3cc18b4c41d551ea0ee66dd599cde068d998e57d5e09332c131b939092919083018282801561099b57602002820191906000526020600020906000905b82829054906101000a900460e01b7bffffffffffffffffffffffffffffffffffffffffffffffffffffffff1916815260200190600401906020826003010492830192600103820291508084116109485790505b5050505050915050919050565b6000828152601d6020908152604080832084845290915290205460ff165b92915050565b73ffffffffffffffffffffffffffffffffffffffff811660009081527fc8fcad8db84d3cc18b4c41d551ea0ee66dd599cde068d998e57d5e09332c131c60205260408120547fc8fcad8db84d3cc18b4c41d551ea0ee66dd599cde068d998e57d5e09332c131b908015610adf5773ffffffffffffffffffffffffffffffffffffffff84166000908152600183016020526040812080548290610a7057610a70610fe3565b6000918252602080832060088304015460079092166004026101000a90910460e01b7fffffffff000000000000000000000000000000000000000000000000000000001682528490526040902054760100000000000000000000000000000000000000000000900460ff169350505b5050919050565b7fffffffff00000000000000000000000000000000000000000000000000000000811660009081527fc8fcad8db84d3cc18b4c41d551ea0ee66dd599cde068d998e57d5e09332c131b6020819052604082205473ffffffffffffffffffffffffffffffffffffffff16610bba576040517f08c379a000000000000000000000000000000000000000000000000000000000815260206004820152600260248201527f673200000000000000000000000000000000000000000000000000000000000060448201526064015b60405180910390fd5b7fffffffff00000000000000000000000000000000000000000000000000000000909216600090815260209290925250604090205460ff7601000000000000000000000000000000000000000000009091041690565b60408051606081018252600080825260208201819052918101919091526002820154600183015403610c9e576040517f08c379a000000000000000000000000000000000000000000000000000000000815260206004820152600160248201527f44000000000000000000000000000000000000000000000000000000000000006044820152606401610bb1565b5060028101546000908152602091825260409081902081516060810183528154815260019091015467ffffffffffffffff8116938201939093526801000000000000000090920477ffffffffffffffffffffffffffffffffffffffffffffffff169082015290565b6000816002015482600101546109c69190611012565b600060208083528351808285015260005b81811015610d4957858101830151858201604001528201610d2d565b5060006040828601015260407fffffffffffffffffffffffffffffffffffffffffffffffffffffffffffffffe0601f8301168501019250505092915050565b6020808252825182820181905260009190848201906040850190845b81811015610dd657835173ffffffffffffffffffffffffffffffffffffffff1683529284019291840191600101610da4565b50909695505050505050565b600060208284031215610df457600080fd5b5035919050565b600081518084526020808501945080840160005b83811015610e4d5781517fffffffff000000000000000000000000000000000000000000000000000000001687529582019590820190600101610e0f565b509495945050505050565b60006020808301818452808551808352604092508286019150828160051b87010184880160005b83811015610ef2578883037fffffffffffffffffffffffffffffffffffffffffffffffffffffffffffffffc00185528151805173ffffffffffffffffffffffffffffffffffffffff168452870151878401879052610edf87850182610dfb565b9588019593505090860190600101610e7f565b509098975050505050505050565b600060208284031215610f1257600080fd5b813573ffffffffffffffffffffffffffffffffffffffff81168114610f3657600080fd5b9392505050565b602081526000610f366020830184610dfb565b60008060408385031215610f6357600080fd5b50508035926020909101359150565b600060208284031215610f8457600080fd5b81357fffffffff0000000000000000000000000000000000000000000000000000000081168114610f3657600080fd5b7f4e487b7100000000000000000000000000000000000000000000000000000000600052604160045260246000fd5b7f4e487b7100000000000000000000000000000000000000000000000000000000600052603260045260246000fd5b818103818111156109c6577f4e487b7100000000000000000000000000000000000000000000000000000000600052601160045260246000fdfea2646970667358221220a20773a174129a3f45f937fe50870e01570c728476d8e5b921ad19a68b7d94e064736f6c63430008140033",
  "linkReferences": {},
  "deployedLinkReferences": {}
}