{
  "_format": "hh-sol-artifact-1",
  "contractName": "MailboxFacet",
  "sourceName": "cache/solpp-generated-contracts/zksync/facets/Mailbox.sol",
  "abi": [
    {
      "anonymous": false,
      "inputs": [
        {
          "indexed": true,
          "internalType": "address",
          "name": "to",
          "type": "address"
        },
        {
          "indexed": false,
          "internalType": "uint256",
          "name": "amount",
          "type": "uint256"
        }
      ],
      "name": "EthWithdrawalFinalized",
      "type": "event"
    },
    {
      "anonymous": false,
      "inputs": [
        {
          "indexed": false,
          "internalType": "uint256",
          "name": "txId",
          "type": "uint256"
        },
        {
          "indexed": false,
          "internalType": "bytes32",
          "name": "txHash",
          "type": "bytes32"
        },
        {
          "indexed": false,
          "internalType": "uint64",
          "name": "expirationTimestamp",
          "type": "uint64"
        },
        {
          "components": [
            {
              "internalType": "uint256",
              "name": "txType",
              "type": "uint256"
            },
            {
              "internalType": "uint256",
              "name": "from",
              "type": "uint256"
            },
            {
              "internalType": "uint256",
              "name": "to",
              "type": "uint256"
            },
            {
              "internalType": "uint256",
              "name": "gasLimit",
              "type": "uint256"
            },
            {
              "internalType": "uint256",
              "name": "gasPerPubdataByteLimit",
              "type": "uint256"
            },
            {
              "internalType": "uint256",
              "name": "maxFeePerGas",
              "type": "uint256"
            },
            {
              "internalType": "uint256",
              "name": "maxPriorityFeePerGas",
              "type": "uint256"
            },
            {
              "internalType": "uint256",
              "name": "paymaster",
              "type": "uint256"
            },
            {
              "internalType": "uint256",
              "name": "nonce",
              "type": "uint256"
            },
            {
              "internalType": "uint256",
              "name": "value",
              "type": "uint256"
            },
            {
              "internalType": "uint256[4]",
              "name": "reserved",
              "type": "uint256[4]"
            },
            {
              "internalType": "bytes",
              "name": "data",
              "type": "bytes"
            },
            {
              "internalType": "bytes",
              "name": "signature",
              "type": "bytes"
            },
            {
              "internalType": "uint256[]",
              "name": "factoryDeps",
              "type": "uint256[]"
            },
            {
              "internalType": "bytes",
              "name": "paymasterInput",
              "type": "bytes"
            },
            {
              "internalType": "bytes",
              "name": "reservedDynamic",
              "type": "bytes"
            }
          ],
          "indexed": false,
          "internalType": "struct IMailbox.L2CanonicalTransaction",
          "name": "transaction",
          "type": "tuple"
        },
        {
          "indexed": false,
          "internalType": "bytes[]",
          "name": "factoryDeps",
          "type": "bytes[]"
        }
      ],
      "name": "NewPriorityRequest",
      "type": "event"
    },
    {
      "inputs": [
        {
          "internalType": "uint256",
          "name": "_l2BatchNumber",
          "type": "uint256"
        },
        {
          "internalType": "uint256",
          "name": "_l2MessageIndex",
          "type": "uint256"
        },
        {
          "internalType": "uint16",
          "name": "_l2TxNumberInBatch",
          "type": "uint16"
        },
        {
          "internalType": "bytes",
          "name": "_message",
          "type": "bytes"
        },
        {
          "internalType": "bytes32[]",
          "name": "_merkleProof",
          "type": "bytes32[]"
        }
      ],
      "name": "finalizeEthWithdrawal",
      "outputs": [],
      "stateMutability": "nonpayable",
      "type": "function"
    },
    {
      "inputs": [],
      "name": "getName",
      "outputs": [
        {
          "internalType": "string",
          "name": "",
          "type": "string"
        }
      ],
      "stateMutability": "view",
      "type": "function"
    },
    {
      "inputs": [
        {
          "internalType": "uint256",
          "name": "_gasPrice",
          "type": "uint256"
        },
        {
          "internalType": "uint256",
          "name": "_l2GasLimit",
          "type": "uint256"
        },
        {
          "internalType": "uint256",
          "name": "_l2GasPerPubdataByteLimit",
          "type": "uint256"
        }
      ],
      "name": "l2TransactionBaseCost",
      "outputs": [
        {
          "internalType": "uint256",
          "name": "",
          "type": "uint256"
        }
      ],
      "stateMutability": "view",
      "type": "function"
    },
    {
      "inputs": [
        {
          "internalType": "bytes32",
          "name": "_l2TxHash",
          "type": "bytes32"
        },
        {
          "internalType": "uint256",
          "name": "_l2BatchNumber",
          "type": "uint256"
        },
        {
          "internalType": "uint256",
          "name": "_l2MessageIndex",
          "type": "uint256"
        },
        {
          "internalType": "uint16",
          "name": "_l2TxNumberInBatch",
          "type": "uint16"
        },
        {
          "internalType": "bytes32[]",
          "name": "_merkleProof",
          "type": "bytes32[]"
        },
        {
          "internalType": "enum TxStatus",
          "name": "_status",
          "type": "uint8"
        }
      ],
      "name": "proveL1ToL2TransactionStatus",
      "outputs": [
        {
          "internalType": "bool",
          "name": "",
          "type": "bool"
        }
      ],
      "stateMutability": "view",
      "type": "function"
    },
    {
      "inputs": [
        {
          "internalType": "uint256",
          "name": "_batchNumber",
          "type": "uint256"
        },
        {
          "internalType": "uint256",
          "name": "_index",
          "type": "uint256"
        },
        {
          "components": [
            {
              "internalType": "uint8",
              "name": "l2ShardId",
              "type": "uint8"
            },
            {
              "internalType": "bool",
              "name": "isService",
              "type": "bool"
            },
            {
              "internalType": "uint16",
              "name": "txNumberInBatch",
              "type": "uint16"
            },
            {
              "internalType": "address",
              "name": "sender",
              "type": "address"
            },
            {
              "internalType": "bytes32",
              "name": "key",
              "type": "bytes32"
            },
            {
              "internalType": "bytes32",
              "name": "value",
              "type": "bytes32"
            }
          ],
          "internalType": "struct L2Log",
          "name": "_log",
          "type": "tuple"
        },
        {
          "internalType": "bytes32[]",
          "name": "_proof",
          "type": "bytes32[]"
        }
      ],
      "name": "proveL2LogInclusion",
      "outputs": [
        {
          "internalType": "bool",
          "name": "",
          "type": "bool"
        }
      ],
      "stateMutability": "view",
      "type": "function"
    },
    {
      "inputs": [
        {
          "internalType": "uint256",
          "name": "_batchNumber",
          "type": "uint256"
        },
        {
          "internalType": "uint256",
          "name": "_index",
          "type": "uint256"
        },
        {
          "components": [
            {
              "internalType": "uint16",
              "name": "txNumberInBatch",
              "type": "uint16"
            },
            {
              "internalType": "address",
              "name": "sender",
              "type": "address"
            },
            {
              "internalType": "bytes",
              "name": "data",
              "type": "bytes"
            }
          ],
          "internalType": "struct L2Message",
          "name": "_message",
          "type": "tuple"
        },
        {
          "internalType": "bytes32[]",
          "name": "_proof",
          "type": "bytes32[]"
        }
      ],
      "name": "proveL2MessageInclusion",
      "outputs": [
        {
          "internalType": "bool",
          "name": "",
          "type": "bool"
        }
      ],
      "stateMutability": "view",
      "type": "function"
    },
    {
      "inputs": [
        {
          "internalType": "address",
          "name": "_contractL2",
          "type": "address"
        },
        {
          "internalType": "uint256",
          "name": "_l2Value",
          "type": "uint256"
        },
        {
          "internalType": "bytes",
          "name": "_calldata",
          "type": "bytes"
        },
        {
          "internalType": "uint256",
          "name": "_l2GasLimit",
          "type": "uint256"
        },
        {
          "internalType": "uint256",
          "name": "_l2GasPerPubdataByteLimit",
          "type": "uint256"
        },
        {
          "internalType": "bytes[]",
          "name": "_factoryDeps",
          "type": "bytes[]"
        },
        {
          "internalType": "address",
          "name": "_refundRecipient",
          "type": "address"
        }
      ],
      "name": "requestL2Transaction",
      "outputs": [
        {
          "internalType": "bytes32",
          "name": "canonicalTxHash",
          "type": "bytes32"
        }
      ],
      "stateMutability": "payable",
      "type": "function"
    }
  ],
  "bytecode": "0x608060405234801561001057600080fd5b5061269d806100206000396000f3fe6080604052600436106100705760003560e01c80636c0960f91161004e5780636c0960f914610120578063b473318e14610142578063e4948f4314610170578063eb6724191461019057600080fd5b8063042901c71461007557806317d7de7c146100aa578063263b7f8e14610100575b600080fd5b34801561008157600080fd5b50610095610090366004611c0f565b6101a3565b60405190151581526020015b60405180910390f35b3480156100b657600080fd5b506100f36040518060400160405280600c81526020017f4d61696c626f784661636574000000000000000000000000000000000000000081525081565b6040516100a19190611d06565b34801561010c57600080fd5b5061009561011b366004611e07565b610222565b34801561012c57600080fd5b5061014061013b366004611f45565b61023b565b005b34801561014e57600080fd5b5061016261015d366004611fd9565b610570565b6040519081526020016100a1565b34801561017c57600080fd5b5061009561018b366004612005565b610592565b61016261019e366004612134565b610636565b6000806040518060c00160405280600060ff1681526020016001151581526020018761ffff16815260200161800173ffffffffffffffffffffffffffffffffffffffff1681526020018a8152602001846001811115610204576102046121e1565b9052905061021588888388886107bd565b9998505050505050505050565b600061023186868686866107bd565b9695505050505050565b7f8e94fed44239eb2314ab7a406345e6c5a8f0ccedf3b600de3d004e672c33abf454600181146102cc576040517f08c379a000000000000000000000000000000000000000000000000000000000815260206004820152600260248201527f723100000000000000000000000000000000000000000000000000000000000060448201526064015b60405180910390fd5b60027f8e94fed44239eb2314ab7a406345e6c5a8f0ccedf3b600de3d004e672c33abf4556000888152601d602090815260408083208a845290915290205460ff1615610374576040517f08c379a000000000000000000000000000000000000000000000000000000000815260206004820152600260248201527f6a6a00000000000000000000000000000000000000000000000000000000000060448201526064016102c3565b600060405180606001604052808861ffff16815260200161800a73ffffffffffffffffffffffffffffffffffffffff16815260200187878080601f0160208091040260200160405190810160405280939291908181526020018383808284376000920182905250939094525050604080516020601f8b018190048102820181019092528981529394509092839250610426918a908a90819084018382808284376000920191909152506109c492505050565b9150915060006104398c8c868a8a610592565b9050806104a2576040517f08c379a000000000000000000000000000000000000000000000000000000000815260206004820152600260248201527f706900000000000000000000000000000000000000000000000000000000000060448201526064016102c3565b60008c8152601d602090815260408083208e8452909152902080547fffffffffffffffffffffffffffffffffffffffffffffffffffffffffffffff001660011790556104ee8383610aff565b8273ffffffffffffffffffffffffffffffffffffffff167f26464d64ddb13f6d187de632d165bd1065382ec0b66c25c648957116e7bc25c88360405161053691815260200190565b60405180910390a25050505060017f8e94fed44239eb2314ab7a406345e6c5a8f0ccedf3b600de3d004e672c33abf4555050505050505050565b60008061057d8584610b79565b9050610589848261223f565b95945050505050565b6000610231868661062f876040805160c081018252600080825260208201819052918101829052606081018290526080810182905260a0810191909152506040805160c081018252600081526001602080830191909152835161ffff168284015261800860608301528381015173ffffffffffffffffffffffffffffffffffffffff1660808301529290910151805192019190912060a082015290565b86866107bd565b7f8e94fed44239eb2314ab7a406345e6c5a8f0ccedf3b600de3d004e672c33abf454600090600181146106c5576040517f08c379a000000000000000000000000000000000000000000000000000000000815260206004820152600260248201527f723100000000000000000000000000000000000000000000000000000000000060448201526064016102c3565b60027f8e94fed44239eb2314ab7a406345e6c5a8f0ccedf3b600de3d004e672c33abf4553332811461070a575033731111000000000000000000000000000000001111015b6103208714610775576040517f08c379a000000000000000000000000000000000000000000000000000000000815260206004820152600260248201527f717000000000000000000000000000000000000000000000000000000000000060448201526064016102c3565b610789818d8d8d8d8d8d8d8d60008e610d06565b60017f8e94fed44239eb2314ab7a406345e6c5a8f0ccedf3b600de3d004e672c33abf4559c9b505050505050505050505050565b600b5460009086111561082c576040517f08c379a000000000000000000000000000000000000000000000000000000000815260206004820152600260248201527f787800000000000000000000000000000000000000000000000000000000000060448201526064016102c3565b8351602080860151604080880151606089015160808a015160a08b015193516000976108f597909695910160f896871b7fff0000000000000000000000000000000000000000000000000000000000000016815294151590951b600185015260f09290921b7fffff00000000000000000000000000000000000000000000000000000000000016600284015260601b7fffffffffffffffffffffffffffffffffffffffff0000000000000000000000001660048301526018820152603881019190915260580190565b6040516020818303038152906040528051906020012090507f72abee45b59e344af8a6e520241c4744aff26ed411f4c4b00f8af09adada43ba60001b8103610999576040517f08c379a000000000000000000000000000000000000000000000000000000000815260206004820152600260248201527f747700000000000000000000000000000000000000000000000000000000000060448201526064016102c3565b60006109a785858985611043565b6000898152600f6020526040902054149250505095945050505050565b600080603883511015610a33576040517f08c379a000000000000000000000000000000000000000000000000000000000815260206004820152600260248201527f706d00000000000000000000000000000000000000000000000000000000000060448201526064016102c3565b600483810151907f6c0960f9000000000000000000000000000000000000000000000000000000007fffffffff0000000000000000000000000000000000000000000000000000000060e084901b1614610ae9576040517f08c379a000000000000000000000000000000000000000000000000000000000815260206004820152600260248201527f697300000000000000000000000000000000000000000000000000000000000060448201526064016102c3565b6014940193840151603490940151939492505050565b600080600080600085875af1905080610b74576040517f08c379a000000000000000000000000000000000000000000000000000000000815260206004820152600260248201527f707a00000000000000000000000000000000000000000000000000000000000060448201526064016102c3565b505050565b6040805160c081019091526026805460009283929091829060ff166001811115610ba557610ba56121e1565b6001811115610bb657610bb66121e1565b8152905463ffffffff6101008204811660208401526501000000000082048116604084015269010000000000000000008204811660608401526d0100000000000000000000000000820416608083015267ffffffffffffffff710100000000000000000000000000000000009091041660a090910152905060008082516001811115610c4457610c446121e1565b03610c5757610c5485601161223f565b90505b600085836020015163ffffffff16610c6f919061223f565b90506000836040015163ffffffff1682610c899190612285565b610c939084612299565b90506000846060015163ffffffff1683610cad9190612285565b8560a0015167ffffffffffffffff16610cc69190612299565b90506000876001610cd78286612299565b610ce191906122ac565b610ceb9190612285565b9050610cf7828261121f565b96505050505050505b92915050565b60006020841115610d73576040517f08c379a000000000000000000000000000000000000000000000000000000000815260206004820152600260248201527f756a00000000000000000000000000000000000000000000000000000000000060448201526064016102c3565b6000610d7f8142612299565b601154909150610e27604051806101400160405280600073ffffffffffffffffffffffffffffffffffffffff1681526020016000815260200160008152602001600073ffffffffffffffffffffffffffffffffffffffff168152602001600067ffffffffffffffff16815260200160008152602001600081526020016000815260200160008152602001600073ffffffffffffffffffffffffffffffffffffffff1681525090565b85610e3b57610e363a8a610b79565b610e3e565b60005b60c08201819052600090610e53908c9061223f565b9050610e5f8e82612299565b341015610ec8576040517f08c379a000000000000000000000000000000000000000000000000000000000815260206004820152600260248201527f6d7600000000000000000000000000000000000000000000000000000000000060448201526064016102c3565b50600073ffffffffffffffffffffffffffffffffffffffff861615610eed5785610eef565b8f5b905073ffffffffffffffffffffffffffffffffffffffff81163b15610f2557731111000000000000000000000000000000001111015b8f826000019073ffffffffffffffffffffffffffffffffffffffff16908173ffffffffffffffffffffffffffffffffffffffff1681525050828260200181815250508d8260400181815250508e826060019073ffffffffffffffffffffffffffffffffffffffff16908173ffffffffffffffffffffffffffffffffffffffff168152505083826080019067ffffffffffffffff16908167ffffffffffffffff16815250508a8260a0018181525050898260e001818152505034826101000181815250508082610120019073ffffffffffffffffffffffffffffffffffffffff16908173ffffffffffffffffffffffffffffffffffffffff168152505061102e828e8e8c8c611237565b9450505050509b9a5050505050505050505050565b600083806110ad576040517f08c379a000000000000000000000000000000000000000000000000000000000815260206004820152600260248201527f786300000000000000000000000000000000000000000000000000000000000060448201526064016102c3565b6101008110611118576040517f08c379a000000000000000000000000000000000000000000000000000000000815260206004820152600260248201527f627400000000000000000000000000000000000000000000000000000000000060448201526064016102c3565b6001811b8410611184576040517f08c379a000000000000000000000000000000000000000000000000000000000815260206004820152600260248201527f707800000000000000000000000000000000000000000000000000000000000060448201526064016102c3565b8260005b828110156112145761119b6002876122bf565b156111d1576111cc8888838181106111b5576111b56122d3565b905060200201358360009182526020526040902090565b6111fd565b6111fd828989848181106111e7576111e76122d3565b9050602002013560009182526020526040902090565b915061120a600287612285565b9550600101611188565b509695505050505050565b600081831161122e5781611230565b825b9392505050565b600080611247878787878761136f565b905060008160405160200161125c919061246f565b604080518083037fffffffffffffffffffffffffffffffffffffffffffffffffffffffffffffffe0018152919052601a546026549192506112b791849184916d0100000000000000000000000000900463ffffffff166114d9565b8080519060200120925061131b60405180606001604052808581526020018a6080015167ffffffffffffffff168152602001600077ffffffffffffffffffffffffffffffffffffffffffffffff16815250600060100161165590919063ffffffff16565b7f4531cd5795773d7101c17bdeb9f5ab7f47d7056017506f937083be5d6e77a3828860200151848a6080015185898960405161135c969594939291906124cb565b60405180910390a1505095945050505050565b611377611b0b565b60405180610200016040528060ff8152602001876000015173ffffffffffffffffffffffffffffffffffffffff168152602001876060015173ffffffffffffffffffffffffffffffffffffffff1681526020018760a0015181526020018760e0015181526020018760c001518152602001600081526020016000815260200187602001518152602001876040015181526020016040518060800160405280896101000151815260200189610120015173ffffffffffffffffffffffffffffffffffffffff168152602001600081526020016000815250815260200186868080601f01602080910402602001604051908101604052809392919081815260200183838082843760009201829052509385525050604080519283526020808401825284019290925250016114a985856116c9565b81526040805160008082526020808301845280850192909252825190815290810182529101529695505050505050565b60006114ea856060015185516117a3565b905082811115611556576040517f08c379a000000000000000000000000000000000000000000000000000000000815260206004820152600260248201527f756900000000000000000000000000000000000000000000000000000000000060448201526064016102c3565b818560800151826115679190612285565b11156115cf576040517f08c379a000000000000000000000000000000000000000000000000000000000815260206004820152600260248201527f756b00000000000000000000000000000000000000000000000000000000000060448201526064016102c3565b806115e68551876101a00151518860800151611824565b111561164e576040517f08c379a000000000000000000000000000000000000000000000000000000000815260206004820152600260248201527f757000000000000000000000000000000000000000000000000000000000000060448201526064016102c3565b5050505050565b6001808301546000818152602085815260409182902085518155908501519185015177ffffffffffffffffffffffffffffffffffffffffffffffff16680100000000000000000267ffffffffffffffff9092169190911790830155906116bc908290612299565b8360010181905550505050565b6060818067ffffffffffffffff8111156116e5576116e5611d19565b60405190808252806020026020018201604052801561170e578160200160208202803683370190505b50915060005b8181101561179b57600061177f868684818110611733576117336122d3565b905060200281019061174591906125cd565b8080601f0160208091040260200160405190810160405280939291908181526020018383808284376000920191909152506118af92505050565b60018301602002850152506117948160010190565b9050611714565b505092915050565b6000806117af83611ab8565b90508084101561181b576040517f08c379a000000000000000000000000000000000000000000000000000000000815260206004820152600260248201527f6d7900000000000000000000000000000000000000000000000000000000000060448201526064016102c3565b90920392915050565b600062028cf56118416118396106788761223f565b610220611ad4565b61184b9082612299565b90506118596109a98561223f565b6118639082612299565b9050611872816202a5ac61121f565b9050600061188184605861223f565b90508361188f60408761223f565b611899919061223f565b6118a39082612299565b90506102318183612299565b6000602082516118bf91906122bf565b15611926576040517f08c379a000000000000000000000000000000000000000000000000000000000815260206004820152600260248201527f707100000000000000000000000000000000000000000000000000000000000060448201526064016102c3565b6000602083516119369190612285565b90506201000081106119a4576040517f08c379a000000000000000000000000000000000000000000000000000000000815260206004820152600260248201527f707000000000000000000000000000000000000000000000000000000000000060448201526064016102c3565b6119af6002826122bf565b600114611a18576040517f08c379a000000000000000000000000000000000000000000000000000000000815260206004820152600260248201527f707300000000000000000000000000000000000000000000000000000000000060448201526064016102c3565b600283604051611a289190612632565b602060405180830381855afa158015611a45573d6000803e3d6000fd5b5050506040513d601f19601f82011682018060405250810190611a68919061264e565b60e09190911b7bffffffffffffffffffffffffffffffffffffffffffffffffffffffff91909116177f01000000000000000000000000000000000000000000000000000000000000001792915050565b6127106000611ac883600a61223f565b9050611230828261121f565b60008215611b025781611ae86001856122ac565b611af29190612285565b611afd906001612299565b611230565b50600092915050565b60405180610200016040528060008152602001600081526020016000815260200160008152602001600081526020016000815260200160008152602001600081526020016000815260200160008152602001611b65611b8e565b815260200160608152602001606081526020016060815260200160608152602001606081525090565b60405180608001604052806004906020820280368337509192915050565b803561ffff81168114611bbe57600080fd5b919050565b60008083601f840112611bd557600080fd5b50813567ffffffffffffffff811115611bed57600080fd5b6020830191508360208260051b8501011115611c0857600080fd5b9250929050565b600080600080600080600060c0888a031215611c2a57600080fd5b873596506020880135955060408801359450611c4860608901611bac565b9350608088013567ffffffffffffffff811115611c6457600080fd5b611c708a828b01611bc3565b90945092505060a088013560028110611c8857600080fd5b8091505092959891949750929550565b60005b83811015611cb3578181015183820152602001611c9b565b50506000910152565b60008151808452611cd4816020860160208601611c98565b601f017fffffffffffffffffffffffffffffffffffffffffffffffffffffffffffffffe0169290920160200192915050565b6020815260006112306020830184611cbc565b7f4e487b7100000000000000000000000000000000000000000000000000000000600052604160045260246000fd5b60405160c0810167ffffffffffffffff81118282101715611d6b57611d6b611d19565b60405290565b6040516060810167ffffffffffffffff81118282101715611d6b57611d6b611d19565b604051601f82017fffffffffffffffffffffffffffffffffffffffffffffffffffffffffffffffe016810167ffffffffffffffff81118282101715611ddb57611ddb611d19565b604052919050565b803573ffffffffffffffffffffffffffffffffffffffff81168114611bbe57600080fd5b6000806000806000858703610120811215611e2157600080fd5b863595506020870135945060c07fffffffffffffffffffffffffffffffffffffffffffffffffffffffffffffffc082011215611e5c57600080fd5b50611e65611d48565b604087013560ff81168114611e7957600080fd5b815260608701358015158114611e8e57600080fd5b6020820152611e9f60808801611bac565b6040820152611eb060a08801611de3565b606082015260c0870135608082015260e087013560a0820152925061010086013567ffffffffffffffff811115611ee657600080fd5b611ef288828901611bc3565b969995985093965092949392505050565b60008083601f840112611f1557600080fd5b50813567ffffffffffffffff811115611f2d57600080fd5b602083019150836020828501011115611c0857600080fd5b600080600080600080600060a0888a031215611f6057600080fd5b8735965060208801359550611f7760408901611bac565b9450606088013567ffffffffffffffff80821115611f9457600080fd5b611fa08b838c01611f03565b909650945060808a0135915080821115611fb957600080fd5b50611fc68a828b01611bc3565b989b979a50959850939692959293505050565b600080600060608486031215611fee57600080fd5b505081359360208301359350604090920135919050565b60008060008060006080868803121561201d57600080fd5b853594506020808701359450604087013567ffffffffffffffff8082111561204457600080fd5b908801906060828b03121561205857600080fd5b612060611d71565b61206983611bac565b8152612076848401611de3565b8482015260408301358281111561208c57600080fd5b8084019350508a601f8401126120a157600080fd5b8235828111156120b3576120b3611d19565b6120e3857fffffffffffffffffffffffffffffffffffffffffffffffffffffffffffffffe0601f84011601611d94565b8181528c868387010111156120f757600080fd5b818686018783013760009181019095015260408101939093529194506060880135918083111561212657600080fd5b5050611ef288828901611bc3565b600080600080600080600080600060e08a8c03121561215257600080fd5b61215b8a611de3565b985060208a0135975060408a013567ffffffffffffffff8082111561217f57600080fd5b61218b8d838e01611f03565b909950975060608c0135965060808c0135955060a08c01359150808211156121b257600080fd5b506121bf8c828d01611bc3565b90945092506121d2905060c08b01611de3565b90509295985092959850929598565b7f4e487b7100000000000000000000000000000000000000000000000000000000600052602160045260246000fd5b7f4e487b7100000000000000000000000000000000000000000000000000000000600052601160045260246000fd5b8082028115828204841417610d0057610d00612210565b7f4e487b7100000000000000000000000000000000000000000000000000000000600052601260045260246000fd5b60008261229457612294612256565b500490565b80820180821115610d0057610d00612210565b81810381811115610d0057610d00612210565b6000826122ce576122ce612256565b500690565b7f4e487b7100000000000000000000000000000000000000000000000000000000600052603260045260246000fd5b8060005b6004811015612325578151845260209384019390910190600101612306565b50505050565b600081518084526020808501945080840160005b8381101561235b5781518752958201959082019060010161233f565b509495945050505050565b6000610260825184526020830151602085015260408301516040850152606083015160608501526080830151608085015260a083015160a085015260c083015160c085015260e083015160e0850152610100808401518186015250610120808401518186015250610140808401516123e082870182612302565b50506101608301516101c082818701526123fc83870183611cbc565b925061018085015191506101e08684038188015261241a8484611cbc565b93506101a08601519250868403610200880152612437848461232b565b93508186015192508684036102208801526124528484611cbc565b935080860151925050508482036102408601526105898282611cbc565b6020815260006112306020830184612366565b8183528181602085013750600060208284010152600060207fffffffffffffffffffffffffffffffffffffffffffffffffffffffffffffffe0601f840116840101905092915050565b86815260006020878184015267ffffffffffffffff808816604085015260a060608501526124fc60a0850188612366565b8481036080860152858152828101600587901b820184018860005b898110156125ba577fffffffffffffffffffffffffffffffffffffffffffffffffffffffffffffffe085840301845281357fffffffffffffffffffffffffffffffffffffffffffffffffffffffffffffffe18c360301811261257857600080fd5b8b0187810190358781111561258c57600080fd5b80360382131561259b57600080fd5b6125a6858284612482565b958901959450505090860190600101612517565b50909d9c50505050505050505050505050565b60008083357fffffffffffffffffffffffffffffffffffffffffffffffffffffffffffffffe184360301811261260257600080fd5b83018035915067ffffffffffffffff82111561261d57600080fd5b602001915036819003821315611c0857600080fd5b60008251612644818460208701611c98565b9190910192915050565b60006020828403121561266057600080fd5b505191905056fea2646970667358221220831e6e9ea98e71f3b9f06a1c8a5c4f950f9ac084ab6579a859354d611818e78264736f6c63430008140033",
  "linkReferences": {},
  "deployedLinkReferences": {}
}