{
  "_format": "hh-sol-artifact-1",
  "contractName": "Verifier",
  "sourceName": "cache/solpp-generated-contracts/zksync/Verifier.sol",
  "abi": [
    {
      "inputs": [],
      "name": "verificationKeyHash",
      "outputs": [
        {
          "internalType": "bytes32",
          "name": "vkHash",
          "type": "bytes32"
        }
      ],
      "stateMutability": "pure",
      "type": "function"
    },
    {
      "inputs": [
        {
          "internalType": "uint256[]",
          "name": "",
          "type": "uint256[]"
        },
        {
          "internalType": "uint256[]",
          "name": "",
          "type": "uint256[]"
        },
        {
          "internalType": "uint256[]",
          "name": "",
          "type": "uint256[]"
        }
      ],
      "name": "verify",
      "outputs": [
        {
          "internalType": "bool",
          "name": "",
          "type": "bool"
        }
      ],
      "stateMutability": "view",
      "type": "function"
    }
  ],
  "bytecode": "0x608060405234801561001057600080fd5b506143ef806100206000396000f3fe608060405234801561001057600080fd5b50600436106100365760003560e01c806387d9d0231461003b5780639e8945d214610063575b600080fd5b61004e61004936600461431f565b610079565b60405190151581526020015b60405180910390f35b61006b613cf3565b60405190815260200161005a565b600061064e7f281bdd74b0e5ce559019f68453b8ccdbc07ef97554fb9f47fc87a86f6720d9c4610200527f07ed1e84e05b9e4e69ce8eed39601a0605adf9abe15f9c9ed13f642bf8c31dfb610220527f04659caf7b05471ba5ba85b1ab62267aa6c456836e625f169f7119d55b9462d2610240527f0ea63403692148d2ad22189a1e5420076312f4d46e62036a043a6b0b84d5b410610260527f0e6696d09d65fce1e42805be03fca1f14aea247281f688981f925e77d4ce2291610280527f0228f6cf8fe20c1e07e5b78bf8c41d50e55975a126d22a198d1e56acd4bbb3dd6102a0527f14685dafe340b1dec5eafcd5e7faddaf24f3781ddc53309cc25d0b42c00541dd6102c0527f0e651cff9447cb360198899b80fa23e89ec13bc94ff161729aa841d2b55ea5be6102e0527f16e9ef76cb68f2750eb0ee72382dd9911a982308d0ab10ef94dada13c382ae73610300527f22e404bc91350f3bc7daad1d1025113742436983c85eac5ab7b42221a181b81e610320527f0d9b29613037a5025655c82b143d2b7449c98f3aea358307c8529249cc54f3b9610340527f15b3c4c946ad1babfc4c03ff7c2423fd354af3a9305c499b7fb3aaebe2fee746610360527f2b0287845b812b668358980e3fd51479ecd86402156fb329551f0ced5b78ff32610380527f08976d4177ca333c0cffd19dda4b8ff6b65f049453235396a42151352d97a5096103a0527f283344a1ab3e55ecfd904d0b8e9f4faea338df5a4ead2fa9a42f0e103da40abc6103c0527f223b37b83b9687512d322993edd70e508dd80adb10bcf7321a3cc8a44c2695216103e0527f1f67f0ba5f7e837bc680acb4e612ebd938ad35211aa6e05b96cad19e66b82d2d610400527f2820641a84d2e8298ac2ac42bd4b912c0c37f768ecc83d3a29e7c720763d15a1610420527f0353257957562270292a17860ca8e8827703f828f440ee004848b1e23fdf9de2610440527f305f4137fee253dff8b2bfe579038e8f25d5bd217865072af5d89fc8800ada24610460527f13a600154b369ff3237706d00948e465ee1c32c7a6d3e18bccd9c4a15910f2e5610480527f138aa24fbf4cdddc75114811b3d59040394c218ecef3eb46ef9bd646f7e537766104a0527f277fff1f80c409357e2d251d79f6e3fd2164b755ce69cfd72de5c690289df6626104c0527f25235588e28c70eea3e35531c80deac25cd9b53ea3f98993f120108bc7abf6706104e0527f0990e07a9b001048b947d0e5bd6157214c7359b771f01bf52bd771ba563a900e610500527f05e5fb090dd40914c8606d875e301167ae3047d684a02b44d9d36f1eaf43d0b4610520527f1d4656690b33299db5631401a282afab3e16c78ee2c9ad9efea628171dcbc6bc610540527f0ebda2ebe582f601f813ec1e3970d13ef1500c742a85cce9b7f190f333de03b0610560527f2c513ed74d9d57a5ec901e074032741036353a2c4513422e96e7b53b302d765b6105c0527f04dd964427e430f16004076d708c0cb21e225056cc1d57418cfbd3d4729814686105e0527f1ea83e5e65c6f8068f4677e2911678cf329b28259642a32db1f14b8347828aac610600527f1d22bc884a2da4962a893ba8de13f57aaeb785ed52c5e686994839cab8f7475d610620527f0b2e7212d0d9cff26d0bdf3d79b2cac029a25dfeb1cafdf49e2349d7db348d89610640527f1301f9b252419ea240eb67fda720ca0b16d92364027285f95e9b1349490fa283610660527f02f7b99fdfa5b418548c2d777785820e02383cfc87e7085e280a375a358153bf610680527f09d004fe08dc4d19c382df36fad22ef676185663543703e6a4b40203e50fd8a66106a0527f2f4d347c7fb61daaadfff881e24f4b5dcfdc0d70a95bcb148168b90ef93e0007610580527f2322632465ba8e28cd0a4befd813ea85a972f4f6fa8e8603cf5d062dbcb140656105a0527f1e3c9fc98c118e4bc34f1f93d214a5d86898e980c40d8e2c180c6ada377a74676106c0527f2260a13535c35a15c173f5e5797d4b675b55d164a9995bfb7624971324bd84a86106e052600061070052565b613cb8565b7f08c379a000000000000000000000000000000000000000000000000000000000600052602060045280602452508060445260646000fd5b6020600052602080526020604052806060525080608052507f30644e72e131a029b85045b68181585d2833e84879b9709143e1f593f000000160a05260006020600060c0600060055afa610704576107047f6d6f6465787020707265636f6d70696c65206661696c656400000000000000006018610653565b5060005190565b805160005260208101516020525080604052506040816060600060075afa610758576107587f706f696e744d756c496e746f446573743a2065634d756c206661696c65640000601e610653565b50565b805160005260208101516020525080516040526020810151606052506040816080600060065afa610758576107587f706f696e74416464496e746f446573743a206563416464206661696c65640000601e610653565b80516000526020810151602052815160405260208201517f30644e72e131a029b85045b68181585d97816a916871ca8d3c208c16d87cfd47036060526040816080600060065afa610827576108277f706f696e7453756241737369676e3a206563416464206661696c656400000000601c610653565b5050565b80516000526020810151602052815160405260208201516060526040816080600060065afa610827576108277f706f696e7441646441737369676e3a206563416464206661696c656400000000601c610653565b80516000526020810151602052508060405250604060006060600060075afa815160405260208201516060526040826080600060065afa1680610827576108277f706f696e744d756c416e64416464496e746f44657374000000000000000000006016610653565b602081015180801561091f57507f30644e72e131a029b85045b68181585d97816a916871ca8d3c208c16d87cfd470360209190910152565b825115610951576109517f706f696e744e65676174653a20696e76616c696420706f696e74000000000000601a610653565b505050565b6000610d4353610d84526064610d40206001610d43536064610d4020610d6452610d4452565b6002610d435360e01b610d84526048610d40207f1fffffffffffffffffffffffffffffffffffffffffffffffffffffffffffffff1690565b60043560048101356001811490507f1fffffffffffffffffffffffffffffffffffffffffffffffffffffffffffffff602483013516610720526024359150600482013581602c8214169150507f30644e72e131a029b85045b68181585d97816a916871ca8d3c208c16d87cfd476024830135067f30644e72e131a029b85045b68181585d97816a916871ca8d3c208c16d87cfd476044840135067f30644e72e131a029b85045b68181585d97816a916871ca8d3c208c16d87cfd47828309837f30644e72e131a029b85045b68181585d97816a916871ca8d3c208c16d87cfd4760037f30644e72e131a029b85045b68181585d97816a916871ca8d3c208c16d87cfd47848709087f30644e72e131a029b85045b68181585d97816a916871ca8d3c208c16d87cfd4784850914169350508161074052806107605250507f30644e72e131a029b85045b68181585d97816a916871ca8d3c208c16d87cfd476064830135067f30644e72e131a029b85045b68181585d97816a916871ca8d3c208c16d87cfd476084840135067f30644e72e131a029b85045b68181585d97816a916871ca8d3c208c16d87cfd47828309837f30644e72e131a029b85045b68181585d97816a916871ca8d3c208c16d87cfd4760037f30644e72e131a029b85045b68181585d97816a916871ca8d3c208c16d87cfd47848709087f30644e72e131a029b85045b68181585d97816a916871ca8d3c208c16d87cfd4784850914169350508161078052806107a05250507f30644e72e131a029b85045b68181585d97816a916871ca8d3c208c16d87cfd4760a4830135067f30644e72e131a029b85045b68181585d97816a916871ca8d3c208c16d87cfd4760c4840135067f30644e72e131a029b85045b68181585d97816a916871ca8d3c208c16d87cfd47828309837f30644e72e131a029b85045b68181585d97816a916871ca8d3c208c16d87cfd4760037f30644e72e131a029b85045b68181585d97816a916871ca8d3c208c16d87cfd47848709087f30644e72e131a029b85045b68181585d97816a916871ca8d3c208c16d87cfd478485091416935050816107c052806107e05250507f30644e72e131a029b85045b68181585d97816a916871ca8d3c208c16d87cfd4760e4830135067f30644e72e131a029b85045b68181585d97816a916871ca8d3c208c16d87cfd47610104840135067f30644e72e131a029b85045b68181585d97816a916871ca8d3c208c16d87cfd47828309837f30644e72e131a029b85045b68181585d97816a916871ca8d3c208c16d87cfd4760037f30644e72e131a029b85045b68181585d97816a916871ca8d3c208c16d87cfd47848709087f30644e72e131a029b85045b68181585d97816a916871ca8d3c208c16d87cfd4784850914169350508161080052806108205250507f30644e72e131a029b85045b68181585d97816a916871ca8d3c208c16d87cfd47610124830135067f30644e72e131a029b85045b68181585d97816a916871ca8d3c208c16d87cfd47610144840135067f30644e72e131a029b85045b68181585d97816a916871ca8d3c208c16d87cfd47828309837f30644e72e131a029b85045b68181585d97816a916871ca8d3c208c16d87cfd4760037f30644e72e131a029b85045b68181585d97816a916871ca8d3c208c16d87cfd47848709087f30644e72e131a029b85045b68181585d97816a916871ca8d3c208c16d87cfd4784850914169350508161084052806108605250507f30644e72e131a029b85045b68181585d97816a916871ca8d3c208c16d87cfd47610164830135067f30644e72e131a029b85045b68181585d97816a916871ca8d3c208c16d87cfd47610184840135067f30644e72e131a029b85045b68181585d97816a916871ca8d3c208c16d87cfd47828309837f30644e72e131a029b85045b68181585d97816a916871ca8d3c208c16d87cfd4760037f30644e72e131a029b85045b68181585d97816a916871ca8d3c208c16d87cfd47848709087f30644e72e131a029b85045b68181585d97816a916871ca8d3c208c16d87cfd4784850914169350508161088052806108a05250507f30644e72e131a029b85045b68181585d97816a916871ca8d3c208c16d87cfd476101a4830135067f30644e72e131a029b85045b68181585d97816a916871ca8d3c208c16d87cfd476101c4840135067f30644e72e131a029b85045b68181585d97816a916871ca8d3c208c16d87cfd47828309837f30644e72e131a029b85045b68181585d97816a916871ca8d3c208c16d87cfd4760037f30644e72e131a029b85045b68181585d97816a916871ca8d3c208c16d87cfd47848709087f30644e72e131a029b85045b68181585d97816a916871ca8d3c208c16d87cfd478485091416935050816108c052806108e05250507f30644e72e131a029b85045b68181585d97816a916871ca8d3c208c16d87cfd476101e4830135067f30644e72e131a029b85045b68181585d97816a916871ca8d3c208c16d87cfd47610204840135067f30644e72e131a029b85045b68181585d97816a916871ca8d3c208c16d87cfd47828309837f30644e72e131a029b85045b68181585d97816a916871ca8d3c208c16d87cfd4760037f30644e72e131a029b85045b68181585d97816a916871ca8d3c208c16d87cfd47848709087f30644e72e131a029b85045b68181585d97816a916871ca8d3c208c16d87cfd4784850914169350508161090052806109205250507f30644e72e131a029b85045b68181585d97816a916871ca8d3c208c16d87cfd47610224830135067f30644e72e131a029b85045b68181585d97816a916871ca8d3c208c16d87cfd47610244840135067f30644e72e131a029b85045b68181585d97816a916871ca8d3c208c16d87cfd47828309837f30644e72e131a029b85045b68181585d97816a916871ca8d3c208c16d87cfd4760037f30644e72e131a029b85045b68181585d97816a916871ca8d3c208c16d87cfd47848709087f30644e72e131a029b85045b68181585d97816a916871ca8d3c208c16d87cfd4784850914169350508161094052806109605250507f30644e72e131a029b85045b68181585d97816a916871ca8d3c208c16d87cfd47610264830135067f30644e72e131a029b85045b68181585d97816a916871ca8d3c208c16d87cfd47610284840135067f30644e72e131a029b85045b68181585d97816a916871ca8d3c208c16d87cfd47828309837f30644e72e131a029b85045b68181585d97816a916871ca8d3c208c16d87cfd4760037f30644e72e131a029b85045b68181585d97816a916871ca8d3c208c16d87cfd47848709087f30644e72e131a029b85045b68181585d97816a916871ca8d3c208c16d87cfd4784850914169350508161098052806109a05250507f30644e72e131a029b85045b68181585d97816a916871ca8d3c208c16d87cfd476102a4830135067f30644e72e131a029b85045b68181585d97816a916871ca8d3c208c16d87cfd476102c4840135067f30644e72e131a029b85045b68181585d97816a916871ca8d3c208c16d87cfd47828309837f30644e72e131a029b85045b68181585d97816a916871ca8d3c208c16d87cfd4760037f30644e72e131a029b85045b68181585d97816a916871ca8d3c208c16d87cfd47848709087f30644e72e131a029b85045b68181585d97816a916871ca8d3c208c16d87cfd478485091416935050816109c052806109e05250507f30644e72e131a029b85045b68181585d2833e84879b9709143e1f593f00000016102e483013506610a00527f30644e72e131a029b85045b68181585d2833e84879b9709143e1f593f000000161030483013506610a20527f30644e72e131a029b85045b68181585d2833e84879b9709143e1f593f000000161032483013506610a40527f30644e72e131a029b85045b68181585d2833e84879b9709143e1f593f000000161034483013506610a60527f30644e72e131a029b85045b68181585d2833e84879b9709143e1f593f000000161036483013506610a80527f30644e72e131a029b85045b68181585d2833e84879b9709143e1f593f000000161038483013506610aa0527f30644e72e131a029b85045b68181585d2833e84879b9709143e1f593f00000016103a483013506610ac0527f30644e72e131a029b85045b68181585d2833e84879b9709143e1f593f00000016103c483013506610ae0527f30644e72e131a029b85045b68181585d2833e84879b9709143e1f593f00000016103e483013506610b00527f30644e72e131a029b85045b68181585d2833e84879b9709143e1f593f000000161040483013506610b20527f30644e72e131a029b85045b68181585d2833e84879b9709143e1f593f000000161042483013506610b40527f30644e72e131a029b85045b68181585d2833e84879b9709143e1f593f000000161044483013506610b60527f30644e72e131a029b85045b68181585d2833e84879b9709143e1f593f000000161046483013506610b80527f30644e72e131a029b85045b68181585d2833e84879b9709143e1f593f000000161048483013506610ba0527f30644e72e131a029b85045b68181585d2833e84879b9709143e1f593f00000016104a483013506610bc0527f30644e72e131a029b85045b68181585d2833e84879b9709143e1f593f00000016104c483013506610be0527f30644e72e131a029b85045b68181585d2833e84879b9709143e1f593f00000016104e483013506610c00527f30644e72e131a029b85045b68181585d2833e84879b9709143e1f593f000000161050483013506610c20527f30644e72e131a029b85045b68181585d97816a916871ca8d3c208c16d87cfd47610524830135067f30644e72e131a029b85045b68181585d97816a916871ca8d3c208c16d87cfd47610544840135067f30644e72e131a029b85045b68181585d97816a916871ca8d3c208c16d87cfd47828309837f30644e72e131a029b85045b68181585d97816a916871ca8d3c208c16d87cfd4760037f30644e72e131a029b85045b68181585d97816a916871ca8d3c208c16d87cfd47848709087f30644e72e131a029b85045b68181585d97816a916871ca8d3c208c16d87cfd47848509141693505081610c405280610c605250507f30644e72e131a029b85045b68181585d97816a916871ca8d3c208c16d87cfd47610564830135067f30644e72e131a029b85045b68181585d97816a916871ca8d3c208c16d87cfd47610584840135067f30644e72e131a029b85045b68181585d97816a916871ca8d3c208c16d87cfd47828309837f30644e72e131a029b85045b68181585d97816a916871ca8d3c208c16d87cfd4760037f30644e72e131a029b85045b68181585d97816a916871ca8d3c208c16d87cfd47848709087f30644e72e131a029b85045b68181585d97816a916871ca8d3c208c16d87cfd47848509141693505081610c805280610ca0525050604435915060048201356107005160008114611b5e5782600483141692507f30644e72e131a029b85045b68181585d97816a916871ca8d3c208c16d87cfd476024850135067f30644e72e131a029b85045b68181585d97816a916871ca8d3c208c16d87cfd476044860135067f30644e72e131a029b85045b68181585d97816a916871ca8d3c208c16d87cfd47828309857f30644e72e131a029b85045b68181585d97816a916871ca8d3c208c16d87cfd4760037f30644e72e131a029b85045b68181585d97816a916871ca8d3c208c16d87cfd47848709087f30644e72e131a029b85045b68181585d97816a916871ca8d3c208c16d87cfd47848509141695505081610cc05280610ce05250507f30644e72e131a029b85045b68181585d97816a916871ca8d3c208c16d87cfd476064850135067f30644e72e131a029b85045b68181585d97816a916871ca8d3c208c16d87cfd476084860135067f30644e72e131a029b85045b68181585d97816a916871ca8d3c208c16d87cfd47828309857f30644e72e131a029b85045b68181585d97816a916871ca8d3c208c16d87cfd4760037f30644e72e131a029b85045b68181585d97816a916871ca8d3c208c16d87cfd47848709087f30644e72e131a029b85045b68181585d97816a916871ca8d3c208c16d87cfd47848509141695505081610d005280610d20525050611b65565b8282151692505b505080610827576108277f6c6f616450726f6f663a2050726f6f6620697320696e76616c69640000000000601b610653565b611ba361072051610956565b611baf61074051610956565b611bbb61076051610956565b611bc761078051610956565b611bd36107a051610956565b611bdf6107c051610956565b611beb6107e051610956565b611bf761080051610956565b611c0361082051610956565b611c0d600061097c565b610f0052611c1d61088051610956565b611c296108a051610956565b611c33600161097c565b610de052611c41600261097c565b610e0052611c5161084051610956565b611c5d61086051610956565b611c67600361097c565b610f2052611c75600461097c565b610f4052611c856108c051610956565b611c916108e051610956565b611c9b600561097c565b610dc052611cab61090051610956565b611cb761092051610956565b611cc361094051610956565b611ccf61096051610956565b611cdb61098051610956565b611ce76109a051610956565b611cf36109c051610956565b611cff6109e051610956565b611d09600661097c565b80610fe052611d1c63010000008261068b565b6110605250611d2d610c0051610956565b611d39610a0051610956565b611d45610a2051610956565b611d51610a4051610956565b611d5d610a6051610956565b611d69610a8051610956565b611d75610aa051610956565b611d81610ac051610956565b611d8d610ae051610956565b611d99610b0051610956565b611da5610b2051610956565b611db1610b8051610956565b611dbd610bc051610956565b611dc9610be051610956565b611dd5610b4051610956565b611de1610b6051610956565b611ded610ba051610956565b611df9610c2051610956565b611e03600761097c565b610fa052611e13610c4051610956565b611e1f610c6051610956565b611e2b610c8051610956565b611e37610ca051610956565b611e41600861097c565b610fc052565b610dc0517f30644e72e131a029b85045b68181585d2833e84879b9709143e1f593f000000181820980610e20527f30644e72e131a029b85045b68181585d2833e84879b9709143e1f593f0000001828209905080610e40527f30644e72e131a029b85045b68181585d2833e84879b9709143e1f593f0000001828209905080610e60527f30644e72e131a029b85045b68181585d2833e84879b9709143e1f593f0000001828209905080610e80527f30644e72e131a029b85045b68181585d2833e84879b9709143e1f593f0000001828209905080610ea0527f30644e72e131a029b85045b68181585d2833e84879b9709143e1f593f0000001828209905080610ec0527f30644e72e131a029b85045b68181585d2833e84879b9709143e1f593f0000001828209610ee0525050610fe051611f84816000612115565b61102052611f958162ffffff612115565b61104052507f30644e72e131a029b85045b68181585d2833e84879b9709143e1f593f00000016107205161102051097f30644e72e131a029b85045b68181585d2833e84879b9709143e1f593f0000001610aa051820990507f30644e72e131a029b85045b68181585d2833e84879b9709143e1f593f00000016120166122bf565b820890507f30644e72e131a029b85045b68181585d2833e84879b9709143e1f593f000000161204361259e565b820890507f30644e72e131a029b85045b68181585d2833e84879b9709143e1f593f000000181610c20510890507f30644e72e131a029b85045b68181585d2833e84879b9709143e1f593f000000160017f30644e72e131a029b85045b68181585d2833e84879b9709143e1f593f00000010361106051087f30644e72e131a029b85045b68181585d2833e84879b9709143e1f593f000000181610c0051099050818114610827576108277f696e76616c69642071756f7469656e74206576616c756174696f6e0000000000601b610653565b60006001821561214c57612149837f1951441010b2b95a6e47a6075066a50a036f5ba978c050f2821df86636c0facb61068b565b90505b7f30644e72e131a029b85045b68181585d2833e84879b9709143e1f593f00000017f30644e72e131a029b85045b68181585d2833e84879b9709143e1f593f000000061219c63010000008761068b565b089150816121cf576121cf7f696e76616c69642076616e697368696e6720706f6c796e6f6d69616c00000000601c610653565b7f30644e72e131a029b85045b68181585d2833e84879b9709143e1f593f000000181830991507f30644e72e131a029b85045b68181585d2833e84879b9709143e1f593f0000001817f30644e72e131a029b85045b68181585d2833e84879b9709143e1f593f000000103850890507f30644e72e131a029b85045b68181585d2833e84879b9709143e1f593f00000016301000000820990506122917f30644e72e131a029b85045b68181585d2833e84879b9709143e1f593efffffff8261068b565b90507f30644e72e131a029b85045b68181585d2833e84879b9709143e1f593f0000001818309949350505050565b60007f30644e72e131a029b85045b68181585d2833e84879b9709143e1f593f0000001610b2051610e6051099050610e0051610de05160007f30644e72e131a029b85045b68181585d2833e84879b9709143e1f593f000000182610ac0510990507f30644e72e131a029b85045b68181585d2833e84879b9709143e1f593f000000183820890507f30644e72e131a029b85045b68181585d2833e84879b9709143e1f593f0000001610a0051820890507f30644e72e131a029b85045b68181585d2833e84879b9709143e1f593f000000181850993507f30644e72e131a029b85045b68181585d2833e84879b9709143e1f593f000000182610ae0510990507f30644e72e131a029b85045b68181585d2833e84879b9709143e1f593f000000183820890507f30644e72e131a029b85045b68181585d2833e84879b9709143e1f593f0000001610a2051820890507f30644e72e131a029b85045b68181585d2833e84879b9709143e1f593f000000181850993507f30644e72e131a029b85045b68181585d2833e84879b9709143e1f593f000000182610b00510990507f30644e72e131a029b85045b68181585d2833e84879b9709143e1f593f000000183820890507f30644e72e131a029b85045b68181585d2833e84879b9709143e1f593f0000001610a4051820890507f30644e72e131a029b85045b68181585d2833e84879b9709143e1f593f0000001818509935050507f30644e72e131a029b85045b68181585d2833e84879b9709143e1f593f00000018082610a6051088309915050807f30644e72e131a029b85045b68181585d2833e84879b9709143e1f593f0000001039050611020517f30644e72e131a029b85045b68181585d2833e84879b9709143e1f593f0000001610e8051820990507f30644e72e131a029b85045b68181585d2833e84879b9709143e1f593f0000001817f30644e72e131a029b85045b68181585d2833e84879b9709143e1f593f000000103830891505090565b6000610f2051610f40517f30644e72e131a029b85045b68181585d2833e84879b9709143e1f593f0000001600183087f30644e72e131a029b85045b68181585d2833e84879b9709143e1f593f0000001828209915080610f60525080610f80527f30644e72e131a029b85045b68181585d2833e84879b9709143e1f593f000000182610b40510992507f30644e72e131a029b85045b68181585d2833e84879b9709143e1f593f000000181840892507f30644e72e131a029b85045b68181585d2833e84879b9709143e1f593f0000001610b6051840992507f30644e72e131a029b85045b68181585d2833e84879b9709143e1f593f0000001610ea051840992506126cc62ffffff7f1951441010b2b95a6e47a6075066a50a036f5ba978c050f2821df86636c0facb61068b565b91507f30644e72e131a029b85045b68181585d2833e84879b9709143e1f593f0000001827f30644e72e131a029b85045b68181585d2833e84879b9709143e1f593f000000103610fe05108915081611000527f30644e72e131a029b85045b68181585d2833e84879b9709143e1f593f000000182840992507f30644e72e131a029b85045b68181585d2833e84879b9709143e1f593f0000001610ec051611020510991507f30644e72e131a029b85045b68181585d2833e84879b9709143e1f593f0000001827f30644e72e131a029b85045b68181585d2833e84879b9709143e1f593f00000010384086110405190935091506127cc62ffffff8261068b565b610ee0517f30644e72e131a029b85045b68181585d2833e84879b9709143e1f593f0000001817f30644e72e131a029b85045b68181585d2833e84879b9709143e1f593f000000184870909935050507f30644e72e131a029b85045b68181585d2833e84879b9709143e1f593f0000001827f30644e72e131a029b85045b68181585d2833e84879b9709143e1f593f00000010384089250505090565b612875818361020061070b565b612882818461024061087f565b61288f818561028061087f565b61289c81866102c061087f565b6128cc817f30644e72e131a029b85045b68181585d2833e84879b9709143e1f593f000000185850961030061087f565b6128fc817f30644e72e131a029b85045b68181585d2833e84879b9709143e1f593f000000186850961034061087f565b6129086103808261082b565b61291881610a80516103c061087f565b7f30644e72e131a029b85045b68181585d2833e84879b9709143e1f593f0000001610fa051610aa0510961294d82828461070b565b505050505050565b6000807f30644e72e131a029b85045b68181585d2833e84879b9709143e1f593f000000184850991507f30644e72e131a029b85045b68181585d2833e84879b9709143e1f593f0000001857f30644e72e131a029b85045b68181585d2833e84879b9709143e1f593f000000103830891507f30644e72e131a029b85045b68181585d2833e84879b9709143e1f593f0000001610dc051830991507f30644e72e131a029b85045b68181585d2833e84879b9709143e1f593f000000185860990507f30644e72e131a029b85045b68181585d2833e84879b9709143e1f593f0000001867f30644e72e131a029b85045b68181585d2833e84879b9709143e1f593f000000103820890507f30644e72e131a029b85045b68181585d2833e84879b9709143e1f593f0000001610e2051820990507f30644e72e131a029b85045b68181585d2833e84879b9709143e1f593f000000181830891507f30644e72e131a029b85045b68181585d2833e84879b9709143e1f593f000000184870990507f30644e72e131a029b85045b68181585d2833e84879b9709143e1f593f0000001877f30644e72e131a029b85045b68181585d2833e84879b9709143e1f593f000000103820890507f30644e72e131a029b85045b68181585d2833e84879b9709143e1f593f0000001610e4051820990507f30644e72e131a029b85045b68181585d2833e84879b9709143e1f593f00000018183089150507f30644e72e131a029b85045b68181585d2833e84879b9709143e1f593f0000001610fa0518209905061294d828261044061087f565b610e60517f30644e72e131a029b85045b68181585d2833e84879b9709143e1f593f0000001610de051610fe05109610e00517f30644e72e131a029b85045b68181585d2833e84879b9709143e1f593f0000001857f30644e72e131a029b85045b68181585d2833e84879b9709143e1f593f0000001838508087f30644e72e131a029b85045b68181585d2833e84879b9709143e1f593f000000181850993507f30644e72e131a029b85045b68181585d2833e84879b9709143e1f593f0000001877f30644e72e131a029b85045b68181585d2833e84879b9709143e1f593f0000001847f30644e72e131a029b85045b68181585d2833e84879b9709143e1f593f000000160058809080890507f30644e72e131a029b85045b68181585d2833e84879b9709143e1f593f000000181850993507f30644e72e131a029b85045b68181585d2833e84879b9709143e1f593f0000001887f30644e72e131a029b85045b68181585d2833e84879b9709143e1f593f0000001847f30644e72e131a029b85045b68181585d2833e84879b9709143e1f593f000000160078809080890507f30644e72e131a029b85045b68181585d2833e84879b9709143e1f593f000000181850993507f30644e72e131a029b85045b68181585d2833e84879b9709143e1f593f0000001897f30644e72e131a029b85045b68181585d2833e84879b9709143e1f593f0000001847f30644e72e131a029b85045b68181585d2833e84879b9709143e1f593f0000001600a8809080890507f30644e72e131a029b85045b68181585d2833e84879b9709143e1f593f00000018185099350505050611020517f30644e72e131a029b85045b68181585d2833e84879b9709143e1f593f000000180610e8051830983089150507f30644e72e131a029b85045b68181585d2833e84879b9709143e1f593f0000001610fa0518209905080611340527f30644e72e131a029b85045b68181585d2833e84879b9709143e1f593f0000001610de051610e60510990507f30644e72e131a029b85045b68181585d2833e84879b9709143e1f593f0000001610b205182099050610de051610e00517f30644e72e131a029b85045b68181585d2833e84879b9709143e1f593f0000001857f30644e72e131a029b85045b68181585d2833e84879b9709143e1f593f0000001837f30644e72e131a029b85045b68181585d2833e84879b9709143e1f593f000000186610ac0510908087f30644e72e131a029b85045b68181585d2833e84879b9709143e1f593f000000181850993507f30644e72e131a029b85045b68181585d2833e84879b9709143e1f593f0000001877f30644e72e131a029b85045b68181585d2833e84879b9709143e1f593f0000001847f30644e72e131a029b85045b68181585d2833e84879b9709143e1f593f000000187610ae05109080890507f30644e72e131a029b85045b68181585d2833e84879b9709143e1f593f000000181850993507f30644e72e131a029b85045b68181585d2833e84879b9709143e1f593f0000001887f30644e72e131a029b85045b68181585d2833e84879b9709143e1f593f0000001847f30644e72e131a029b85045b68181585d2833e84879b9709143e1f593f000000187610b005109080890507f30644e72e131a029b85045b68181585d2833e84879b9709143e1f593f000000181850993505050507f30644e72e131a029b85045b68181585d2833e84879b9709143e1f593f0000001610fa051820990506130af6110808261054061070b565b506130bc611080826107b1565b5050505050565b50610b60517f30644e72e131a029b85045b68181585d2833e84879b9709143e1f593f0000001610ea051820990507f30644e72e131a029b85045b68181585d2833e84879b9709143e1f593f000000161100051820990507f30644e72e131a029b85045b68181585d2833e84879b9709143e1f593f0000001610fa05182096113805250610ba051610f20517f30644e72e131a029b85045b68181585d2833e84879b9709143e1f593f000000190820990507f30644e72e131a029b85045b68181585d2833e84879b9709143e1f593f0000001610b8051820890507f30644e72e131a029b85045b68181585d2833e84879b9709143e1f593f0000001610f80518208610f00519091508290807f30644e72e131a029b85045b68181585d2833e84879b9709143e1f593f000000180878309840892507f30644e72e131a029b85045b68181585d2833e84879b9709143e1f593f000000182820990507f30644e72e131a029b85045b68181585d2833e84879b9709143e1f593f000000180888309840892507f30644e72e131a029b85045b68181585d2833e84879b9709143e1f593f000000182820990507f30644e72e131a029b85045b68181585d2833e84879b9709143e1f593f00000018082610be051098408925050507f30644e72e131a029b85045b68181585d2833e84879b9709143e1f593f0000001610bc051820990507f30644e72e131a029b85045b68181585d2833e84879b9709143e1f593f0000001610f4051820890507f30644e72e131a029b85045b68181585d2833e84879b9709143e1f593f00000018183099150507f30644e72e131a029b85045b68181585d2833e84879b9709143e1f593f0000001610f60518209610ea0517f30644e72e131a029b85045b68181585d2833e84879b9709143e1f593f00000019182039250820990507f30644e72e131a029b85045b68181585d2833e84879b9709143e1f593f000000161100051820990507f30644e72e131a029b85045b68181585d2833e84879b9709143e1f593f000000180610ec0516110205109820890507f30644e72e131a029b85045b68181585d2833e84879b9709143e1f593f000000180610ee0516110405109820890507f30644e72e131a029b85045b68181585d2833e84879b9709143e1f593f0000001610fa05182096113605250505050565b6110605180610900516110c052610920516110e0526134446110c08261094061087f565b7f30644e72e131a029b85045b68181585d2833e84879b9709143e1f593f000000182820990506134796110c08261098061087f565b7f30644e72e131a029b85045b68181585d2833e84879b9709143e1f593f000000182820990506134ae6110c0826109c061087f565b5050610a0051610a2051610a4051610a60516134cf81838587611100612868565b6134de81838587611100612955565b6134ed81838587611100612ba0565b506134fc8183856111006130c3565b5050506105c051611140526105e05161116052610f0051806135236111408261060061087f565b7f30644e72e131a029b85045b68181585d2833e84879b9709143e1f593f000000182820990506135586111408261064061087f565b7f30644e72e131a029b85045b68181585d2833e84879b9709143e1f593f000000182820990506108276111408261068061087f565b60016000806110c051611180526110e0516111a052610c0051613617565b6000807f30644e72e131a029b85045b68181585d2833e84879b9709143e1f593f0000001610fa051860991506135e4611180838561087f565b7f30644e72e131a029b85045b68181585d2833e84879b9709143e1f593f000000180855184098708905094509492505050565b61362861118061110061118061075b565b7f30644e72e131a029b85045b68181585d2833e84879b9709143e1f593f0000001610fa051850993507f30644e72e131a029b85045b68181585d2833e84879b9709143e1f593f000000180610c205186098208905061368d8185610a006107406135ab565b915093506136a18185610a206107806135ab565b915093506136b58185610a406107c06135ab565b915093507f30644e72e131a029b85045b68181585d2833e84879b9709143e1f593f0000001610fa051850993508392507f30644e72e131a029b85045b68181585d2833e84879b9709143e1f593f000000180610a60518609820890506137218185610aa06104006135ab565b915093506137358185610ac06104806135ab565b915093506137498185610ae06104c06135ab565b9150935061375d8185610b006105006135ab565b915093507f30644e72e131a029b85045b68181585d2833e84879b9709143e1f593f0000001610fa051850993508391507f30644e72e131a029b85045b68181585d2833e84879b9709143e1f593f000000180610b80518609820890506137c98185610bc06105806135ab565b915093506137dd8185610be06106c06135ab565b61120052610fa0519094507f30644e72e131a029b85045b68181585d2833e84879b9709143e1f593f00000019150840992507f30644e72e131a029b85045b68181585d2833e84879b9709143e1f593f000000180610fc0518509611340510861384b6111c08261084061070b565b507f30644e72e131a029b85045b68181585d2833e84879b9709143e1f593f000000183610b205109613910565b6000807f30644e72e131a029b85045b68181585d2833e84879b9709143e1f593f0000001610fa051870991507f30644e72e131a029b85045b68181585d2833e84879b9709143e1f593f000000180610fc051840986086138db6111c0828661087f565b507f30644e72e131a029b85045b68181585d2833e84879b9709143e1f593f00000018085518409880890509550959350505050565b613921818585610a80610800613878565b91509350613939818561138051610b40610880613878565b91509350613951818561136051610b606108c0613878565b91509350613966818584610ba0611140613878565b611220525050610fc0519250613987915061128090506111c061118061075b565b7f30644e72e131a029b85045b68181585d2833e84879b9709143e1f593f0000001611200517f30644e72e131a029b85045b68181585d2833e84879b9709143e1f593f00000018361122051090890506001611240526002611260526107586112408261124061070b565b610fc051610fe0517f30644e72e131a029b85045b68181585d2833e84879b9709143e1f593f00000017f1951441010b2b95a6e47a6075066a50a036f5ba978c050f2821df86636c0facb8209613a4b6112406112806107b1565b613a5a61128083610c4061087f565b613a8c6112807f30644e72e131a029b85045b68181585d2833e84879b9709143e1f593f0000001858409610c8061087f565b5050610c405161130052610c605161132052613aad61130082610c8061087f565b613ab86113006108e7565b6107005115613b05577f30644e72e131a029b85045b68181585d2833e84879b9709143e1f593f0000001818209613af461128082610cc061087f565b613b0361130082610d0061087f565b505b50611280516000526112a0516020527f198e9393920d483a7260bfb731fb5d25f1aa493335a9e71297e485b7aef312c26040527f1800deef121f1e76426a00665e5c4479674322d4f75edadd46debd5cd992f6ed6060527f090689d0585ff075ec9e99ad690c3395bc4b313370b38ef355acdadcd122975b6080527f12c85ea5db8c6deb4aab71808dcb408fe3d1e7690c43d37b4ce6cc0166fa7daa60a0526113005160c0526113205160e0527f260e01b251f6f1c7e7ff4e580791dee8ea51d87a358e038b4efe30fac09383c1610100527f0118c4d5b837bcc2bc89b5b398b5974e9f5944073b32078b7e231fec938883b0610120527f04fc6369f7110fe3d25156c1bb9a72859cf2a04641f99ba4ee413c80da6a5fe4610140527f22febda3c0c0632a56475b4214e5615e11e6dd3f96e6cea2854a87d4dacc5e556101605260206000610180600060085afa80613c8357613c837f66696e616c50616972696e673a20707265636f6d70696c65206661696c7572656020610653565b50600051613cb657613cb67f66696e616c50616972696e673a2070616972696e67206661696c757265000000601d610653565b565b613cc06109b4565b613cc8611b97565b613cd0611e47565b613cd8613420565b613ce061358d565b613ce86139f1565b600160005260206000f35b60006142c87f281bdd74b0e5ce559019f68453b8ccdbc07ef97554fb9f47fc87a86f6720d9c4610200527f07ed1e84e05b9e4e69ce8eed39601a0605adf9abe15f9c9ed13f642bf8c31dfb610220527f04659caf7b05471ba5ba85b1ab62267aa6c456836e625f169f7119d55b9462d2610240527f0ea63403692148d2ad22189a1e5420076312f4d46e62036a043a6b0b84d5b410610260527f0e6696d09d65fce1e42805be03fca1f14aea247281f688981f925e77d4ce2291610280527f0228f6cf8fe20c1e07e5b78bf8c41d50e55975a126d22a198d1e56acd4bbb3dd6102a0527f14685dafe340b1dec5eafcd5e7faddaf24f3781ddc53309cc25d0b42c00541dd6102c0527f0e651cff9447cb360198899b80fa23e89ec13bc94ff161729aa841d2b55ea5be6102e0527f16e9ef76cb68f2750eb0ee72382dd9911a982308d0ab10ef94dada13c382ae73610300527f22e404bc91350f3bc7daad1d1025113742436983c85eac5ab7b42221a181b81e610320527f0d9b29613037a5025655c82b143d2b7449c98f3aea358307c8529249cc54f3b9610340527f15b3c4c946ad1babfc4c03ff7c2423fd354af3a9305c499b7fb3aaebe2fee746610360527f2b0287845b812b668358980e3fd51479ecd86402156fb329551f0ced5b78ff32610380527f08976d4177ca333c0cffd19dda4b8ff6b65f049453235396a42151352d97a5096103a0527f283344a1ab3e55ecfd904d0b8e9f4faea338df5a4ead2fa9a42f0e103da40abc6103c0527f223b37b83b9687512d322993edd70e508dd80adb10bcf7321a3cc8a44c2695216103e0527f1f67f0ba5f7e837bc680acb4e612ebd938ad35211aa6e05b96cad19e66b82d2d610400527f2820641a84d2e8298ac2ac42bd4b912c0c37f768ecc83d3a29e7c720763d15a1610420527f0353257957562270292a17860ca8e8827703f828f440ee004848b1e23fdf9de2610440527f305f4137fee253dff8b2bfe579038e8f25d5bd217865072af5d89fc8800ada24610460527f13a600154b369ff3237706d00948e465ee1c32c7a6d3e18bccd9c4a15910f2e5610480527f138aa24fbf4cdddc75114811b3d59040394c218ecef3eb46ef9bd646f7e537766104a0527f277fff1f80c409357e2d251d79f6e3fd2164b755ce69cfd72de5c690289df6626104c0527f25235588e28c70eea3e35531c80deac25cd9b53ea3f98993f120108bc7abf6706104e0527f0990e07a9b001048b947d0e5bd6157214c7359b771f01bf52bd771ba563a900e610500527f05e5fb090dd40914c8606d875e301167ae3047d684a02b44d9d36f1eaf43d0b4610520527f1d4656690b33299db5631401a282afab3e16c78ee2c9ad9efea628171dcbc6bc610540527f0ebda2ebe582f601f813ec1e3970d13ef1500c742a85cce9b7f190f333de03b0610560527f2c513ed74d9d57a5ec901e074032741036353a2c4513422e96e7b53b302d765b6105c0527f04dd964427e430f16004076d708c0cb21e225056cc1d57418cfbd3d4729814686105e0527f1ea83e5e65c6f8068f4677e2911678cf329b28259642a32db1f14b8347828aac610600527f1d22bc884a2da4962a893ba8de13f57aaeb785ed52c5e686994839cab8f7475d610620527f0b2e7212d0d9cff26d0bdf3d79b2cac029a25dfeb1cafdf49e2349d7db348d89610640527f1301f9b252419ea240eb67fda720ca0b16d92364027285f95e9b1349490fa283610660527f02f7b99fdfa5b418548c2d777785820e02383cfc87e7085e280a375a358153bf610680527f09d004fe08dc4d19c382df36fad22ef676185663543703e6a4b40203e50fd8a66106a0527f2f4d347c7fb61daaadfff881e24f4b5dcfdc0d70a95bcb148168b90ef93e0007610580527f2322632465ba8e28cd0a4befd813ea85a972f4f6fa8e8603cf5d062dbcb140656105a0527f1e3c9fc98c118e4bc34f1f93d214a5d86898e980c40d8e2c180c6ada377a74676106c0527f2260a13535c35a15c173f5e5797d4b675b55d164a9995bfb7624971324bd84a86106e052600061070052565b506105206102002090565b60008083601f8401126142e557600080fd5b50813567ffffffffffffffff8111156142fd57600080fd5b6020830191508360208260051b850101111561431857600080fd5b9250929050565b6000806000806000806060878903121561433857600080fd5b863567ffffffffffffffff8082111561435057600080fd5b61435c8a838b016142d3565b9098509650602089013591508082111561437557600080fd5b6143818a838b016142d3565b9096509450604089013591508082111561439a57600080fd5b506143a789828a016142d3565b979a969950949750929593949250505056fea2646970667358221220a45838d52f7f0177dd4b7e23fbfd073402955c9574c4876365a73815419da23a64736f6c63430008140033",
  "linkReferences": {},
  "deployedLinkReferences": {}
}